:100000000C94CA000C94F2000C94F2000C94F200D0
:100010000C94F2000C94F2000C94F2000C94F20098
:100020000C94F2000C94F2000C94F2000C94F20088
:100030000C94F2000C94F2000C94F2000C94F20078
:100040000C9428080C94F2000C94F6070C94D0073A
:100050000C94F2000C94F2000C94F2000C94F20058
:100060000C94F2000C94F200494E505554004F5538
:10007000545055540053544154455343414E004E3F
:100080004F5F444953504C41595F434C4541523DA9
:100090003100444154415F434F4F4C444F574E3D14
:1000A00030004F55545F434F4F4C444F574E3D30F7
:1000B0000050414745535550504F52543D31005523
:1000C000495F545950453D3000495347454E4552CC
:1000D00049433D3100413D323239303537373239CD
:1000E000393632393637303638003800434F5245CA
:1000F0002D414644530065623664626336642D6167
:100100003137392D343631392D383261612D663031
:100110003739303632303966636400535041440019
:10012000415454414348494E472043414C4C42417D
:10013000434B53210000000000250028002B000045
:10014000000000240027002A0000000000230026F1
:10015000002900040404040404040402020202024C
:10016000020303030303030102040810204080017B
:1001700002040810200102040810200000000800FA
:10018000020100000304070000000000000000005E
:100190007208320C11241FBECFEFD8E0DEBFCDBFF6
:1001A00025E0A2EDB1E001C01D92A938B207E1F748
:1001B00011E0A0E0B1E0E2E9FEE102C005900D929D
:1001C000A23DB107D9F710E0C9ECD0E004C02197F7
:1001D000FE010E943B0DC83CD107C9F70E943409BB
:1001E0000C943C0F0C940000AC011092CE02909144
:1001F0001E0580911D05FA01BF01641B750B20913E
:10020000CE0230813093CE02931304C0921302C009
:100210001092CE023081311104C0921721F0CB012F
:1002200008953817D1F33196E7CF0F931F93CF93EB
:10023000DF9380911205882309F446C0D0E0C0E026
:10024000813029F482E080931205C2EDD2E08091E2
:100250001305882341F1209721F4C0911705D0910F
:1002600018058E01CE010E94F400892B29F42196F5
:10027000F80180818111F5CFF8018081882309F18F
:10028000C8010E94F400F801E80FF91F808188235B
:1002900011F010823196F0931805E0931705109332
:1002A0001605009315058091150590911605892B6B
:1002B00059F081E080931305DF91CF911F910F9149
:1002C000089510E000E0EBCF80E0F6CFDC01ED9187
:1002D000FC910190F081E02D0994EF92FF920F9331
:1002E0001F93CF93DF932091C9022223E9F08C0161
:1002F00060911D0580911A0590911B050E94660171
:10030000E0901A05F0901B05E801FE016491662358
:1003100059F0D701ED91FC910190F081E02DC701DA
:1003200009952196892B89F7DF91CF911F910F9124
:10033000FF90EF900895CF93DF932091C90222237D
:10034000D1F0EC0160911D0580911A0590911B057B
:100350000E94660180911A0590911B054C815D8178
:1003600068817981DC01ED91FC910280F381E02DBF
:10037000DF91CF910994DF91CF910895AF92BF9211
:10038000CF92DF92EF92FF920F931F93CF93DF9361
:100390006C017B018B01040F151FEB015E01AE1890
:1003A000BF08C017D10759F06991D601ED91FC91B2
:1003B0000190F081E02DC6010995892B79F7C501DF
:1003C000DF91CF911F910F91FF90EF90DF90CF9031
:1003D000BF90AF900895FC01538D448D252F30E0E0
:1003E000842F90E0821B930B541710F0CF96089542
:1003F00001970895FC01918D828D981761F0A28D6F
:10040000AE0FBF2FB11D5D968C91928D9F5F9F7334
:10041000928F90E008958FEF9FEF0895FC01918DEA
:10042000828D981731F0828DE80FF11D858D90E057
:1004300008958FEF9FEF0895FC01918D228D892FF4
:1004400090E0805C9F4F821B91098F7399270895DC
:100450008CE292E00E941C0221E0892B09F420E04A
:10046000822F089580E090E0892B29F00E942802D5
:1004700081110C9400000895FC01A48DA80FB92FE0
:10048000B11DA35ABF4F2C91848D90E001968F73BC
:100490009927848FA689B7892C93A089B1898C91DB
:1004A000837080648C93938D848D981306C002882A
:1004B000F389E02D80818F7D80830895EF92FF92F4
:1004C0000F931F93CF93DF93EC0181E0888F9B8D77
:1004D0008C8D98131AC0E889F989808185FF15C031
:1004E0009FB7F894EE89FF896083E889F989808154
:1004F0008370806480839FBF81E090E0DF91CF9123
:100500001F910F91FF90EF900895F62E0B8D10E044
:100510000F5F1F4F0F731127E02E8C8D8E110CC0B3
:100520000FB607FCFACFE889F989808185FFF5CFFE
:10053000CE010E943C02F1CFEB8DEC0FFD2FF11D9F
:10054000E35AFF4FF0829FB7F8940B8FEA89FB893B
:1005500080818062CFCFCF93DF93EC01888D882399
:10056000B9F0AA89BB89E889F9898C9185FD03C016
:10057000808186FD0DC00FB607FCF7CF8C9185FFFB
:10058000F2CF808185FFEDCFCE010E943C02E9CF02
:10059000DF91CF910895833081F028F4813099F074
:1005A0008230A9F008958730A9F08830C9F08430EE
:1005B000B1F4809180008F7D03C0809180008F779F
:1005C00080938000089584B58F7784BD089584B5A5
:1005D0008F7DFBCF8091B0008F778093B00008951E
:1005E0008091B0008F7DF9CF1F93CF93DF93282F99
:1005F00030E0F901E558FE4F8491F901E959FE4FC9
:10060000D491F901ED5AFE4FC491CC23A9F0162FD5
:1006100081110E94CB02EC2FF0E0EE0FFF1FEB5C8C
:10062000FE4FA591B4918FB7F894EC91111108C0C9
:10063000D095DE23DC938FBFDF91CF911F9108957A
:10064000DE2BF8CF3FB7F8948091D3019091D4017D
:10065000A091D501B091D60126B5A89B05C02F3F2A
:1006600019F00196A11DB11D3FBFBA2FA92F982FD8
:100670008827BC01CD01620F711D811D911D42E0D3
:10068000660F771F881F991F4A95D1F708958F929B
:100690009F92AF92BF92CF92DF92EF92FF924B0167
:1006A0005C010E9422036B017C010E9422036C19F1
:1006B0007D098E099F09683E734081059105A8F365
:1006C00021E0821A9108A108B10888EEC80E83E0E3
:1006D000D81EE11CF11C81149104A104B10429F776
:1006E000FF90EF90DF90CF90BF90AF909F908F9052
:1006F00008950E941501882359F081E08093130525
:100700008093140580911505909116050C94690C41
:100710001092140560E070E0CB010895CF930E9421
:100720007903C62F0E947903672B682B692B29F068
:1007300061E08C2FCF910C94F40260E0FACFFC01C1
:1007400024813581232B49F068E371E08081918118
:100750000E942C0F21E0892B09F020E0822F0895C0
:10076000CF93DF930E9415018823B1F081E080933D
:10077000130580931405C0911505D09116056CE3FF
:1007800071E0CE010E942C0F892B59F481E08093F7
:10079000DD01DF91CF91089510921405D0E0C0E003
:1007A000EECF68E371E0CE010E942C0F892B89F710
:1007B0001092DD01EECFFB0101900020E9F73197A7
:1007C000AF01461B570BDC01ED91FC910280F381D8
:1007D000E02D09948091C9028823A1F060911C0545
:1007E00080911A0590911B050E9466018091D102AB
:1007F000882341F062E471E080911A0590911B0515
:100800000E94DB031092D0021092C90280E008958A
:100810008F929F92AF92BF92EF92FF920F931F938E
:10082000CF93DF93CDB7DEB7A1970FB6F894DEBFB5
:100830000FBECDBF7C01FA01CB0119A2223008F412
:100840002AE08E010F5D1F4F822E912CB12CA12C1E
:10085000BF01A50194010E94190DF901CA016A3076
:100860000CF5605DD8016E938D01232B242B252B75
:1008700079F790E080E0109721F0BD01C7010E9458
:10088000DB03A1960FB6F894DEBF0FBECDBFDF919C
:10089000CF911F910F91FF90EF90BF90AF909F90DD
:1008A0008F900895695CDECFCF92DF92EF92FF9236
:1008B000CF93DF936C0160911D0580911A05909193
:1008C0001B050E946601C0911A05D0911B050D2CD5
:1008D000000CEE08FF082AE0B701A601F7FE0CC0E5
:1008E0006DE2CE010E94660144275527BA014C19DA
:1008F0005D096E097F092AE0CE01DF91CF91FF905B
:10090000EF90DF90CF900C9408049091C902911160
:1009100010C091E09093C9029093D002482F50E00C
:1009200070E060E02AE080911A0590911B050C941C
:10093000080408958091C902811119C083E00E94C2
:1009400085048091C902882381F060911D05809102
:100950001A0590911B050E94660165E471E0809183
:100960001A0590911B050E94DB030C94EA0308957D
:100970000F931F93CF93DF93EC01888199810097A8
:1009800059F02A813B812617370730F081E0DF914B
:10099000CF911F910F9108958B016F5F7F4F0E9440
:1009A000660E009759F0998388831B830A832C81F4
:1009B0003D81232B59F7FC011082E8CF80E0E7CF7F
:1009C000CF93DF93EC0188819981009711F00E9409
:1009D000DD0D198218821D821C821B821A82DF9112
:1009E000CF910895EF92FF920F931F93CF93DF93D0
:1009F000EC017B018A01BA010E94B80481110BC08D
:100A0000CE010E94E004CE01DF91CF911F910F91A2
:100A1000FF90EF9008951D830C83B7018881998121
:100A20000E94350FF0CFEF92FF920F931F93CF9359
:100A3000DF93CDB7DEB762970FB6F894DEBF0FBE77
:100A4000CDBF8C01CB01F80111821082138212827A
:100A5000158214824AE09E012F5F3F4F7901B90150
:100A60000E94900CF70101900020E9F73197AF0147
:100A70004E195F09B701C8010E94F20462960FB6D1
:100A8000F894DEBF0FBECDBFDF91CF911F910F91C4
:100A9000FF90EF900895FB01DC0111961C921E92CD
:100AA00013961C921E92129715961C921E921497E2
:100AB0008617970749F0608171816115710521F0F2
:100AC000448155810C94F2040895FC011182108236
:100AD0001382128215821482FB0101900020E9F733
:100AE0003197AF01461B570B0C94F204FC01808137
:100AF0009181009711F00C94DD0D0895CF92DF9253
:100B0000EF92FF920F931F93CF93DF93CDB7DEB792
:100B100068970FB6F894DEBF0FBECDBF0E941501D7
:100B2000882381F181E0809313058093140500915F
:100B300015051091160565E571E0C8010E942C0F9E
:100B4000892B29F580E00E9485048BE191E00E94C9
:100B50006D0186EF90E00E946D018CEE90E00E94A6
:100B60006D018091C902882321F082E090E00E940B
:100B700054048AEE90E00E946D0185ED90E00E94A1
:100B80006D014CC01092140510E000E0D4CF6AE56E
:100B900071E0C8010E942C0F892B09F050C080E041
:100BA0000E9485048091C902882381F060911D050F
:100BB00080911A0590911B050E9466016FE571E016
:100BC00080911A0590911B050E94DB030E94790316
:100BD0006B017C018091C902882301F160911D05A0
:100BE00080911A0590911B050E94660100911A05DB
:100BF00010911B052AE0B701A601F7FE0CC06DE2BB
:100C0000C8010E94660144275527BA014C195D09A5
:100C10006E097F092AE0C8010E9408040E94EA03C5
:100C200068960FB6F894DEBF0FBECDBFDF91CF91AF
:100C30001F910F91FF90EF90DF90CF90089564E6A1
:100C400071E0C8010E942C0F892B09F026C180E0B9
:100C50000E9485048091C902882381F060911D055E
:100C600080911A0590911B050E9466016BE671E068
:100C700080911A0590911B050E94DB0389EC90E09E
:100C80000E946D018FEB90E00E946D0181EB90E07E
:100C90000E946D0182EA90E00E946D0182E990E07D
:100CA0000E946D018FE790E00E946D010E94EA03AF
:100CB00008E012E03CE1E32E31E0F32EC8010E948F
:100CC0009F03882309F46CC00EED11E020E1E22EB1
:100CD00021E0F22EC8010E949F038111C2C06EE77D
:100CE00071E0CE0143960E94650563E871E0CE0194
:100CF0000D960E946505B801CE0107960E944B052E
:100D0000F701C190D1907F0180E00E9485048EE6BA
:100D100090E00E946D018091C902882319F0C601FC
:100D20000E945404BE01695F7F4FCE0101960E946C
:100D30004B05CE0101960E949B01CE0101960E94B7
:100D40007605BE01635F7F4FCE0101960E944B0581
:100D5000CE0101960E949B01CE0101960E9476056C
:100D6000BE016D5E7F4FCE0101960E944B05CE0104
:100D700001960E949B01CE0101960E9476050E9479
:100D8000EA03CE0107960E947605CE010D960E94D9
:100D90007605CE0143960E9476050A5F1F4F9ACFD3
:100DA00062E771E0CE0143960E94650567E771E056
:100DB000CE010D960E946505B801CE0107960E94EE
:100DC0004B05F701C190D1907F0180E00E9485041E
:100DD00088E690E00E946D018091C902882319F095
:100DE000C6010E945404BE01695F7F4FCE01019687
:100DF0000E944B05CE0101960E949B01CE010196F7
:100E00000E947605BE01635F7F4FCE0101960E946E
:100E10004B05CE0101960E949B01CE0101960E94D6
:100E20007605BE016D5E7F4FCE0101960E944B0597
:100E3000CE0101960E949B01CE0101960E9476058B
:100E40000E94EA03CE0107960E947605CE010D9618
:100E50000E947605CE0143960E9476050A5F1F4FD9
:100E60002DCF8091C9028111DBCE0E948504809133
:100E7000C902882309F4D2CE60911D0580911A051C
:100E800090911B050E94660164E671E080911A054D
:100E900090911B050E94DB03C1CE67E871E0C80199
:100EA0000E942C0F892B49F481E08093DD0180E0C2
:100EB0000E94850485E790E062CE68E371E0C80196
:100EC0000E942C0F892B09F0ABCE1092DD011092FD
:100ED000D8011092D70196E0F92E0091D701109118
:100EE000D801F09EC001F19E900D112482529E4FB8
:100EF0000E949F03811194CEF801EE0FFF1FE05F67
:100F0000FE4F60E080810E94F4020F5F1F4F10933C
:100F1000D8010093D70165E070E080E090E00E9486
:100F20004703DBCF0F931F93CF93DF9300D000D005
:100F300000D0CDB7DEB78C0188E00E948504B801EF
:100F4000CE0101960E944B058091C9028823B9F019
:100F500060911D0580911A0590911B050E94660104
:100F600080911A0590911B054D815E8169817A817E
:100F7000DC01ED91FC910280F381E02D0995CE0119
:100F800001960E9476050E94EA0326960FB6F89411
:100F9000DEBF0FBECDBFDF91CF911F910F9108959E
:100FA0001F920F920FB60F9211242F933F934F93DE
:100FB0005F936F937F938F939F93AF93BF93EF93C1
:100FC000FF938CE292E00E943C02FF91EF91BF916F
:100FD000AF919F918F917F916F915F914F913F91D1
:100FE0002F910F900FBE0F901F9018951F920F9288
:100FF0000FB60F9211242F938F939F93EF93FF932C
:10100000E0913C02F0913D028081E0914202F0913A
:10101000430282FD1BC09081809145028F5F8F73D8
:1010200020914602821741F0E0914502F0E0E45D34
:10103000FD4F958F80934502FF91EF919F918F9186
:101040002F910F900FBE0F901F9018958081F4CFB5
:101050001F920F920FB60F9211242F933F938F93ED
:101060009F93AF93BF938091D9019091DA01A091A2
:10107000DB01B091DC013091D20123E0230F2D3749
:1010800058F50196A11DB11D2093D2018093D9017D
:101090009093DA01A093DB01B093DC018091D3013E
:1010A0009091D401A091D501B091D6010196A11DD6
:1010B000B11D8093D3019093D401A093D501B09337
:1010C000D601BF91AF919F918F913F912F910F903A
:1010D0000FBE0F901F90189526E8230F0296A11DB2
:1010E000B11DD2CF10922F0210922E0288EE93E003
:1010F000A0E0B0E08093300290933102A0933202DE
:10110000B09333028AE291E090932D0280932C02F7
:1011100085EC90E0909339028093380284EC90E063
:1011200090933B0280933A0280EC90E090933D02D2
:1011300080933C0281EC90E090933F0280933E02CA
:1011400082EC90E0909341028093400286EC90E024
:1011500090934302809342021092450210924602FD
:1011600010924702109248021092200510921F051B
:101170008CE292E090931B0580931A051092D102A5
:101180008CE280931D058BE380931C058FE2809396
:101190001E0580E48093CC028FE38093CD021092F1
:1011A000CB02109216051092150510921805109298
:1011B000170581E080931305E1E2F5E011921192A9
:1011C00085E0E538F807D1F71092D00261E971E0C7
:1011D00088E092E00E94650564E971E08EE092E0AB
:1011E0000E94650567E971E084E192E00E9465056F
:1011F0006BE971E08AE192E00E94650563EA71E0C3
:1012000080E292E00E94650568E371E086E292E088
:101210000E9465056BEA71E08EED91E00E94650524
:1012200060EB71E084EE91E00E94650565EB71E092
:101230008AEE91E00E9465056AEB71E080EF91E033
:101240000E9465056FEB71E086EF91E00E946505F5
:1012500065EC71E08CEF91E00E94650568E371E058
:1012600082E092E00C946505CF93DF93CDB7DEB7B3
:1012700062970FB6F894DEBF0FBECDBF789484B5E9
:10128000826084BD84B5816084BD85B5826085BD82
:1012900085B5816085BD80916E00816080936E0010
:1012A0001092810080918100826080938100809102
:1012B00081008160809381008091800081608093B3
:1012C00080008091B10084608093B1008091B00073
:1012D00081608093B00080917A00846080937A006E
:1012E00080917A00826080937A0080917A00816098
:1012F00080937A0080917A00806880937A001092BF
:10130000C100E0913C02F0913D0282E08083E091D7
:101310003802F09139021082E0913A02F0913B02DA
:101320008FEC808310924402E0914002F0914102E0
:1013300086E08083E0913E02F0913F0280818061EF
:101340008083E0913E02F0913F028081886080833B
:10135000E0913E02F0913F02808180688083E091BD
:101360003E02F0913F0280818F7D80838091C9028F
:10137000811109C083E00E94850480E291E00E940F
:101380006D010E94EA038AE994E09093200580931E
:101390001F052EE735E0309322052093210520EB31
:1013A00033E03093260520932505909328058093FC
:1013B00027058EE893E090932E0580932D051092DB
:1013C000D8011092D70116E0E090D701F090D80133
:1013D0001E9DC0011F9D900D1124885F9D4F0E948E
:1013E0009F03811135C0F701EE0FFF1FE45EFE4F32
:1013F000808191819927FC01E959FE4F24918D5AF2
:101400009E4FFC0184918823C9F090E0880F991FBA
:10141000FC01E15CFE4F45915491FC01EB5CFE4FF9
:10142000A591B4919FB7F894FA013081822F8095ED
:1014300083238083EC912E2B2C939FBF8091D70127
:101440009091D80101969093D8018093D701BCCF99
:101450001092D8011092D70116E0E090D701F090D9
:10146000D8011E9DC0011F9D900D112482529E4FD8
:101470000E949F0381113AC0F701EE0FFF1FE05F4A
:10148000FE4F808191819927FC01E959FE4F2491FB
:101490008D5A9E4FFC018491882399F090E0880F2B
:1014A000991FFC01E15CFE4FA591B491FC01EB5C3E
:1014B000FE4F859194918FB7F894EC91E22BEC93C9
:1014C0008FBFE090D701F090D801F701EE0FFF1F1A
:1014D000E05FFE4F60E080810E94F402FFEFEF1AB0
:1014E000FF0AF092D801E092D701B7CF1092D8014D
:1014F0001092D701772473948091DD01882309F439
:10150000B4C038E0A32E32E0B32E40E0C42E41E058
:10151000D42E5CE1852E51E0952EC5010E949F03DB
:101520008111A3C0D401ED90FD904D0197013327A7
:10153000F901E558FE4F8491F901E959FE4F1491E4
:10154000F901ED5AFE4F0491002309F442C08111C4
:101550000E94CB02E02FF0E0EE0FFF1FE75BFE4F93
:10156000A591B491EC911E2391E080E009F490E004
:10157000092F182FF601808191818017910709F4B6
:101580005FC0B701CE010D960115110529F10E942A
:101590001305BE01635F7F4FCE0107960E944B0586
:1015A000EB84FC84F2E0EF0EF11CB701CE0107964C
:1015B0000E94B804882329F12F8138858B859C856A
:1015C0006BEC71E0820F931F0E94350FFC86EB8657
:1015D0001CC010E000E0CECF0E941305BE01635F87
:1015E0007F4FCE0107960E944B05EB84FC8422E0DE
:1015F000E20EF11CB701CE0107960E94B8048111DA
:101600002DC0CE0107960E94E004BE01695F7F4FA6
:10161000CE0101960E944B058091C902811104C040
:10162000CE0101960E949207CE0101960E94760596
:10163000CE0107960E947605CE010D960E94760592
:10164000D6010D931D936D016AE070E080E090E09B
:101650000E944703B6E0AB0EB11C5FCF2F813885E7
:101660008B859C856EEC71E0ADCF8091D0028111AD
:10167000E5C080911A0590911B05DC01ED91FC916C
:101680000084F185E02D0995892B09F4D7C080915C
:101690001A0590911B05DC01ED91FC910084F18508
:1016A000E02D099500E012E08115924064F48091EC
:1016B0001A0590911B05DC01ED91FC910084F185E8
:1016C000E02D09958C01E0901A05F0901B0592E140
:1016D000C92E93E0D92E5601912C812C081519059D
:1016E000B9F12FB7F8948091D9019091DA01A091C6
:1016F000DB01B091DC012FBFF70180879187A287C2
:10170000B387D701ED91FC910284F385E02DC701E9
:10171000099597FFA0C02FB7F8948091D9019091B7
:10172000DA01A091DB01B091DC012FBFF701408508
:10173000518562857385841B950BA60BB70B44817D
:1017400055816681778184179507A607B707C8F288
:10175000F12CE12C0E151F0509F487CFD6019D91C0
:101760006D011092120530911E052091CF029093C9
:10177000CF02931304C0921302C01092CF02809143
:10178000CB02E82FF0E040911C05E753FD4F941386
:101790003DC03217D9F11186882321F070921205CD
:1017A0001092CF021092CB021092160510921505DE
:1017B000109218051092170570921305B09012053B
:1017C000B1E0BB1237C00E941501882341F1B092ED
:1017D0001305B092140580911505909116050E948D
:1017E0004B0C8093CA028233F8F420911405222313
:1017F000D9F0FC01FF27EE0FFF1FEF5DFA4F0190BC
:10180000F081E02D309781F0099514C091878F5FAA
:101810008093CB029091CD02891720F6CFCF109202
:10182000140590E080E0DDCFE0911F05F0912005E8
:10183000309751F7EFEFEE1AFE0A8CCF80E090E080
:10184000892B09F459CE0E942802882309F452CE2C
:101850000E9400004FCED5018D935D01BFEF8B1A22
:101860009B0A3CCFCF93DF93C8E0D2E02697CE010E
:101870000E94760581E0CE3DD807C1F7CCE2D2E0E8
:101880002697CE010E94760582E0C830D807C1F7BE
:10189000DF91CF910895FC0188279927E894219141
:1018A0002032E9F3293010F02E30C8F32B3241F00A
:1018B0002D3239F4689404C00E94B00C820F911D3F
:1018C000219120532A30C0F31EF4909581959F4FAB
:1018D00008951F93FC0199278827BC01E894119172
:1018E0001032E9F3193010F01E30C8F31B3251F0FA
:1018F0001D3249F4689406C00E949B0C610F711D53
:10190000811D911D119110531A30B0F33EF4909542
:101910008095709561957F4F8F4F9F4F1F910895D0
:10192000BB274A3031F4992322F4BDE2909581958A
:101930009F4F0C94B90C592F482F372F262F660F25
:10194000771F881F991F660F771F881F991F620FC7
:10195000731F841F951F660F771F881F991F089597
:101960007AE0979F902D879F802D910D11240895E7
:10197000BB27FB015527AA27880F991FAA1FA41769
:1019800010F0A41B83955051B9F7A05DAA3308F05D
:10199000A95DA193009779F7B111B1931192CB0191
:1019A0000C94D20CDC01FC01672F71917723E1F7D5
:1019B000329704C07C916D9370836291AE17BF071C
:1019C000C8F308952F923F924F925F926F927F9249
:1019D0008F929F92AF92BF92CF92DF92EF92FF923F
:1019E0000F931F93CF93DF93CDB7DEB7CA1BDB0BEB
:1019F0000FB6F894DEBF0FBECDBF09942A88398890
:101A000048885F846E847D848C849B84AA84B98496
:101A1000C884DF80EE80FD800C811B81AA81B981A2
:101A2000CE0FD11D0FB6F894DEBF0FBECDBFED01B6
:101A30000895A1E21A2EAA1BBB1BFD010DC0AA1F0F
:101A4000BB1FEE1FFF1FA217B307E407F50720F027
:101A5000A21BB30BE40BF50B661F771F881F991FA2
:101A60001A9469F760957095809590959B01AC01EB
:101A7000BD01CF010895EE0FFF1F0590F491E02DF9
:101A800009940F931F93CF93DF938230910510F445
:101A900082E090E0E0918705F091880530E020E059
:101AA000B0E0A0E0309799F42115310509F44AC05F
:101AB000281B390B24303105D8F58A819B816115AB
:101AC000710589F1FB0193838283FE0111C040817E
:101AD00051810281138148175907E0F048175907CF
:101AE00099F4109761F012960C93129713961C9329
:101AF0003296CF01DF91CF911F910F9108950093FE
:101B0000870510938805F4CF2115310551F0421750
:101B1000530738F0A901DB019A01BD01DF01F8018B
:101B2000C1CFEF01F9CF9093880580938705CDCF82
:101B3000FE01E20FF31F8193919322503109398303
:101B40002883D7CF2091850530918605232B41F43A
:101B500020910C0130910D0130938605209385056D
:101B600020910A0130910B012115310541F42DB767
:101B70003EB740910E0150910F01241B350BE091AF
:101B80008505F0918605E217F307A0F42E1B3F0BA5
:101B90002817390778F0AC014E5F5F4F24173507DF
:101BA00048F04E0F5F1F5093860540938505819343
:101BB00091939FCFF0E0E0E09CCFCF93DF9300972D
:101BC000E9F0FC01329713821282A0918705B0914F
:101BD0008805ED0130E020E01097A1F420813181EB
:101BE000820F931F209185053091860528173907AC
:101BF00009F061C0F0938605E0938505DF91CF91F0
:101C00000895EA01CE17DF07E8F54A815B819E015E
:101C100041155105B1F7E901FB83EA8349915991D7
:101C2000C40FD51FEC17FD0761F4808191810296E6
:101C3000840F951FE90199838883828193819B8317
:101C40008A83F0E0E0E012968D919C9113970097C3
:101C5000B9F52D913C911197CD010296820F931FFA
:101C600020918505309186052817390739F6309778
:101C700051F51092880510928705B0938605A093C0
:101C80008505BCCFD383C28340815181840F951FCA
:101C9000C817D90761F44E5F5F4F88819981480F5B
:101CA000591F518340838A819B81938382832115AD
:101CB000310509F0B0CFF0938805E09387059ECFFA
:101CC000FD01DC01C0CF13821282D7CFB0E0A0E0CB
:101CD000ECE6FEE00C94E40C8C01009751F4CB018F
:101CE0000E94410D8C01C801CDB7DEB7E0E10C9434
:101CF000000DFC01E60FF71F9C0122503109E2178D
:101D0000F30708F49DC0D901CD91DC911197C61756
:101D1000D70798F0C530D10530F3CE010497861768
:101D2000970708F3C61BD70B2297C193D1936D93E6
:101D30007C93CF010E94DD0DD6CF5B01AC1ABD0AAA
:101D40004C018C0E9D1EA0918705B0918805512CE9
:101D5000412CF12CE12C109731F580918505909163
:101D600086058815990509F05CC04616570608F0E7
:101D700058C080910A0190910B01009741F48DB7F2
:101D80009EB740910E0150910F01841B950BE817EF
:101D9000F90708F055C0F0938605E0938505F90131
:101DA00071836083A0CF8D919C91119712966C9056
:101DB000129713967C901397A815B90559F56C01E5
:101DC00042E0C40ED11CCA14DB0420F1AC014A1954
:101DD0005B09DA011296159780F062827382518353
:101DE0004083D9016D937C93E114F10471F0D70124
:101DF0001396FC93EE93129776CF22968C0F9D1F2D
:101E0000F90191838083F301EFCFF0938805E0938C
:101E1000870569CF4816590608F42C017D01D301C6
:101E20009ACFCB010E94410D7C01009749F0AE0191
:101E3000B8010E94230FC8010E94DD0D870153CF16
:101E400010E000E050CFFB01DC0102C001900D92D8
:101E500041505040D8F70895FB01DC018D9101906D
:101E600080190110D9F3990B0895FB01DC01019051
:101E70000D920020E1F7089510E0C9ECD0E004C015
:101E8000FE010E943B0D2196CA3CD107C9F7F89488
:021E9000FFCF82
:101E9200FFFFFFFFFFFFFFFFFFFF0000890580003C
:101EA2000300020004000500060007000800090004
:101EB2000A000B000C00000000005E02BE01EB01F4
:101EC200AB021C02FA010E02454E44005354415229
:101ED20054000D0A00554E4B4E4F574E20434F4D66
:101EE2004D414E4400494E49540050494E4700501E
:101EF2004F4E4700434F4E464947004F5054494FBB
:101F02004E00535041445F53574954434800535085
:101F120041445F4C4544005343414E535441544560
:101F220000415000415400464D4300544553545F14
:101F3200444E00544553545F55500041505F590080
:101F420041505F520041545F590041545F52004674
:101F52004D435F5900464D435F52002C30002C31F7
:021F620000007D
:00000001FF
