:100000000C94CE000C94F6000C94F6000C94F600C0
:100010000C94F6000C94F6000C94F6000C94F60088
:100020000C94F6000C94F6000C94F6000C94F60078
:100030000C94F6000C94F6000C94F6000C94F60068
:100040000C94F0070C94F6000C94BE070C949807DF
:100050000C94F6000C94F6000C94F6000C94F60048
:100060000C94F6000C94F600494E505554004F5530
:1000700054505554004E4F5F444953504C41595FC2
:10008000434C4541523D3100444154415F434F4F41
:100090004C444F574E3D3000434D445F434F4F4C0F
:1000A000444F574E3D300050414745535550504FF7
:1000B00052543D3100495347454E455249433D3125
:1000C00000413D32323930353737323939363239FD
:1000D0003637303638003100434F524520464C49C0
:1000E00047485420544543482E202D204C414E442F
:1000F000494E472047454152204C455645520065E0
:10010000623664626336642D613137392D3436319D
:10011000392D383261612D66303739303632303919
:10012000666364005350414400415454414348497C
:100130004E472043414C4C4241434B532100000069
:100140000000250028002B000000000024002700EC
:100150002A000000000023002600290004040404F3
:100160000404040402020202020203030303030361
:10017000010204081020408001020408102001023E
:10018000040810200000000800020100000304071A
:1001900000000000000000003A080C0C11241FBEF3
:1001A000CFEFD8E0DEBFCDBF25E0ACE1B2E001C0CB
:1001B0001D92A93DB207E1F712E0A0E0B1E0E8E549
:1001C000FEE102C005900D92AC31B107D9F710E005
:1001D000CDECD0E004C02197FE010E941E0DCC3C66
:1001E000D107C9F70E9402090C941F0F0C9400005C
:1001F000AC0110921E0390916E0580916D05FA017D
:10020000BF01641B750B20911E03308130931E03C8
:10021000931304C0921302C010921E033081311157
:1002200004C0921721F0CB0108953817D1F331960D
:10023000E7CF0F931F93CF93DF93809162058823BD
:1002400009F446C0D0E0C0E0813029F482E0809318
:100250006205C2E2D3E080916305882341F12097D3
:1002600021F4C0916705D09168058E01CE010E94EE
:10027000F800892B29F42196F80180818111F5CFAE
:10028000F8018081882309F1C8010E94F800F80173
:10029000E80FF91F8081882311F010823196F093C6
:1002A0006805E093670510936605009365058091E6
:1002B000650590916605892B59F081E0809363056F
:1002C000DF91CF911F910F91089510E000E0EBCFE7
:1002D00080E0F6CFDC01ED91FC910190F081E02D02
:1002E0000994EF92FF920F931F93CF93DF93209186
:1002F00019032223E9F08C0160916D0580916A0554
:1003000090916B050E946A01E0906A05F0906B0580
:10031000E801FE016491662359F0D701ED91FC914B
:100320000190F081E02DC70109952196892B89F76D
:10033000DF91CF911F910F91FF90EF900895CF9390
:10034000DF93209119032223D1F0EC0160916D0518
:1003500080916A0590916B050E946A0180916A05FF
:1003600090916B054C815D8168817981DC01ED9113
:10037000FC910280F381E02DDF91CF910994DF9110
:10038000CF910895AF92BF92CF92DF92EF92FF92FA
:100390000F931F93CF93DF936C017B018B01040FAD
:1003A000151FEB015E01AE18BF08C017D10759F049
:1003B0006991D601ED91FC910190F081E02DC6018B
:1003C0000995892B79F7C501DF91CF911F910F9185
:1003D000FF90EF90DF90CF90BF90AF900895FC0119
:1003E000538D448D252F30E0842F90E0821B930B9A
:1003F000541710F0CF96089501970895FC01918D40
:10040000828D981761F0A28DAE0FBF2FB11D5D9642
:100410008C91928D9F5F9F73928F90E008958FEFE4
:100420009FEF0895FC01918D828D981731F0828D98
:10043000E80FF11D858D90E008958FEF9FEF0895EF
:10044000FC01918D228D892F90E0805C9F4F821B53
:1004500091098F73992708958CE792E00E942002FA
:1004600021E0892B09F420E0822F089580E090E0BC
:10047000892B29F00E942C0281110C940000089510
:10048000FC01A48DA80FB92FB11DA35ABF4F2C9109
:10049000848D90E001968F739927848FA689B78900
:1004A0002C93A089B1898C91837080648C93938DF7
:1004B000848D981306C00288F389E02D80818F7D9A
:1004C00080830895EF92FF920F931F93CF93DF9352
:1004D000EC0181E0888F9B8D8C8D98131AC0E88980
:1004E000F989808185FF15C09FB7F894EE89FF894F
:1004F0006083E889F98980818370806480839FBFED
:1005000081E090E0DF91CF911F910F91FF90EF90EC
:100510000895F62E0B8D10E00F5F1F4F0F731127FC
:10052000E02E8C8D8E110CC00FB607FCFACFE88937
:10053000F989808185FFF5CFCE010E944002F1CF7D
:10054000EB8DEC0FFD2FF11DE35AFF4FF0829FB7AB
:10055000F8940B8FEA89FB8980818062CFCFCF939B
:10056000DF93EC01888D8823B9F0AA89BB89E889DB
:10057000F9898C9185FD03C0808186FD0DC00FB681
:1005800007FCF7CF8C9185FFF2CF808185FFEDCFFF
:10059000CE010E944002E9CFDF91CF9108958330D0
:1005A00081F028F4813099F08230A9F008958730E5
:1005B000A9F08830C9F08430B1F4809180008F7D3B
:1005C00003C0809180008F7780938000089584B568
:1005D0008F7784BD089584B58F7DFBCF8091B00067
:1005E0008F778093B00008958091B0008F7DF9CF10
:1005F0001F93CF93DF93282F30E0F901EC57FE4F84
:100600008491F901E059FE4FD491F901E45AFE4F6B
:10061000C491CC23A9F0162F81110E94CF02EC2F98
:10062000F0E0EE0FFF1FE25CFE4FA591B4918FB793
:10063000F894EC91111108C0D095DE23DC938FBFA4
:10064000DF91CF911F910895DE2BF8CF3FB7F8943B
:1006500080911D0290911E02A0911F02B091200274
:1006600026B5A89B05C02F3F19F00196A11DB11D0D
:100670003FBFBA2FA92F982F8827BC01CD01620F49
:10068000711D811D911D42E0660F771F881F991F04
:100690004A95D1F708958F929F92AF92BF92CF92D1
:1006A000DF92EF92FF924B015C010E9426036B01E7
:1006B0007C010E9426036C197D098E099F09683E02
:1006C000734081059105A8F321E0821A9108A108E1
:1006D000B10888EEC80E83E0D81EE11CF11C81141D
:1006E0009104A104B10429F7FF90EF90DF90CF901F
:1006F000BF90AF909F908F9008950E94190188231A
:1007000059F081E0809363058093640580916505CD
:10071000909166050C944C0C1092640560E070E0BA
:10072000CB010895CF930E947D03C62F0E947D03C5
:10073000672B682B692B29F061E08C2FCF910C94EB
:10074000F80260E0FACFFC0124813581232B49F0C7
:1007500068E371E0808191810E940F0F21E0892B75
:1007600009F020E0822F0895CF93DF930E941901B2
:100770008823B1F081E08093630580936405C09184
:100780006505D09166056CE371E0CE010E940F0F04
:10079000892B59F481E080932702DF91CF9108954E
:1007A00010926405D0E0C0E0EECF68E371E0CE01C6
:1007B0000E940F0F892B89F710922702EECFFB01C1
:1007C00001900020E9F73197AF01461B570BDC0180
:1007D000ED91FC910280F381E02D09948091190341
:1007E0008823A1F060916C0580916A0590916B055A
:1007F0000E946A0180912103882341F062E471E044
:1008000080916A0590916B050E94DF03109220038E
:100810001092190380E008958F929F92AF92BF9239
:10082000EF92FF920F931F93CF93DF93CDB7DEB775
:10083000A1970FB6F894DEBF0FBECDBF7C01FA01C1
:10084000CB0119A2223008F42AE08E010F5D1F4F60
:10085000822E912CB12CA12CBF01A50194010E94E4
:10086000FC0CF901CA016A300CF5605DD8016E9389
:100870008D01232B242B252B79F790E080E0109716
:1008800021F0BD01C7010E94DF03A1960FB6F894C5
:10089000DEBF0FBECDBFDF91CF911F910F91FF90B3
:1008A000EF90BF90AF909F908F900895695CDECFDE
:1008B000CF92DF92EF92FF92CF93DF936C01609122
:1008C0006D0580916A0590916B050E946A01C09147
:1008D0006A05D0916B050D2C000CEE08FF082AE08C
:1008E000B701A601F7FE0CC06DE2CE010E946A01BD
:1008F00044275527BA014C195D096E097F092AE082
:10090000CE01DF91CF91FF90EF90DF90CF900C94CC
:100910000C0490911903911110C091E09093190368
:1009200090932003482F50E070E060E02AE080912F
:100930006A0590916B050C940C040895809119033D
:10094000811119C083E00E948904809119038823D2
:1009500081F060916D0580916A0590916B050E9410
:100960006A0165E471E080916A0590916B050E94CF
:10097000DF030C94EE0308950F931F93CF93DF933F
:10098000EC0188819981009759F02A813B812617D3
:10099000370730F081E0DF91CF911F910F910895DB
:1009A0008B016F5F7F4F0E94490E009759F099832A
:1009B00088831B830A832C813D81232B59F7FC01FB
:1009C0001082E8CF80E0E7CFCF93DF93EC018881FE
:1009D0009981009711F00E94C00D198218821D8222
:1009E0001C821B821A82DF91CF910895EF92FF92B1
:1009F0000F931F93CF93DF93EC017B018A01BA0120
:100A00000E94BC0481110BC0CE010E94E404CE01FF
:100A1000DF91CF911F910F91FF90EF9008951D836B
:100A20000C83B701888199810E94180FF0CFEF9253
:100A3000FF920F931F93CF93DF93CDB7DEB76297EB
:100A40000FB6F894DEBF0FBECDBF8C01CB01F8010D
:100A50001182108213821282158214824AE09E0152
:100A60002F5F3F4F7901B9010E94730CF70101908C
:100A70000020E9F73197AF014E195F09B701C801AE
:100A80000E94F60462960FB6F894DEBF0FBECDBF8B
:100A9000DF91CF911F910F91FF90EF900895FB018F
:100AA000DC0111961C921E9213961C921E921297B4
:100AB00015961C921E9214978617970749F060812D
:100AC00071816115710521F0448155810C94F60402
:100AD0000895FC0111821082138212821582148201
:100AE000FB0101900020E9F73197AF01461B570B3E
:100AF0000C94F604FC0180819181009711F00C9414
:100B0000C00D0895CF92DF92EF92FF920F931F9343
:100B1000CF93DF93CDB7DEB768970FB6F894DEBFFB
:100B20000FBECDBF0E941901882309F440C081E0A7
:100B300080936305809364050091650510916605B7
:100B400065E571E0C8010E940F0F892BA9F580E0CF
:100B50000E94890484E291E00E9471018FEF90E08D
:100B60000E94710188ED90E00E947101809119034B
:100B7000882321F082E090E00E94580486ED90E006
:100B80000E94710181EC90E00E9471010E94EE03CD
:100B900068960FB6F894DEBF0FBECDBFDF91CF9140
:100BA0001F910F91FF90EF90DF90CF9008951092DA
:100BB000640510E000E0C4CF6AE571E0C8010E945E
:100BC0000F0F892B09F040C080E00E9489048091BA
:100BD0001903882381F060916D0580916A059091D9
:100BE0006B050E946A016FE571E080916A05909142
:100BF0006B050E94DF030E947D036B017C018091E5
:100C00001903882319F260916D0580916A0590910E
:100C10006B050E946A0100916A0510916B052AE03C
:100C2000B701A601F7FE0CC06DE2C8010E946A017F
:100C300044275527BA014C195D096E097F092AE03E
:100C4000C8010E940C04A2CF64E671E0C8010E94B2
:100C50000F0F892B09F09CCF81E00E9489048091BD
:100C60001903882381F060916D0580916A05909148
:100C70006B050E946A016BE671E080916A059091B4
:100C80006B050E94DF0385EB90E00E94710187EA0B
:100C900090E00E94710188E990E00E94710188E86B
:100CA00090E00E94710185E790E00E9471010E942E
:100CB000EE030EE512E09EE1E92E91E0F92EC80167
:100CC0000E94A303882309F472C008E212E08EE0B8
:100CD000E82E81E0F82EC8010E94A3038111CEC046
:100CE00069E871E0CE0143960E9469056EE871E003
:100CF000CE010D960E946905B801CE0107960E94AB
:100D00004F05F701C190D1907F0181E00E948904D5
:100D10008EE690E00E94710180911903882319F0FA
:100D2000C6010E945804BE01695F7F4FCE01019643
:100D30000E944F05CE0101960E949F01CE010196AF
:100D40000E947A05BE01635F7F4FCE0101960E942B
:100D50004F05CE0101960E949F01CE0101960E948F
:100D60007A05BE016D5E7F4FCE0101960E944F0550
:100D7000CE0101960E949F01CE0101960E947A0544
:100D80000E94EE03CE0107960E947A05CE010D96D1
:100D90000E947A05CE0143960E947A0565E070E0D4
:100DA00080E090E00E944B030A5F1F4F94CF62E700
:100DB00071E0CE0143960E94690562E871E0CE01C0
:100DC0000D960E946905B801CE0107960E944F0555
:100DD000F701C190D1907F0181E00E94890488E6EB
:100DE00090E00E94710180911903882319F0C601D7
:100DF0000E945804BE01695F7F4FCE0101960E9498
:100E00004F05CE0101960E949F01CE0101960E94DE
:100E10007A05BE01635F7F4FCE0101960E944F05A8
:100E2000CE0101960E949F01CE0101960E947A0593
:100E3000BE016D5E7F4FCE0101960E944F05CE012F
:100E400001960E949F01CE0101960E947A050E94A0
:100E5000EE03CE0107960E947A05CE010D960E9400
:100E60007A05CE0143960E947A0565E070E080E045
:100E700090E00E944B030A5F1F4F21CF809119031E
:100E8000811186CE0E94890480911903882309F478
:100E90007DCE60916D0580916A0590916B050E94F1
:100EA0006A0164E671E080916A0590916B050E9489
:100EB000DF036CCE0F931F93CF93DF9300D000D04E
:100EC00000D0CDB7DEB78C0188E00E948904B8015C
:100ED000CE0101960E944F05809119038823B9F035
:100EE00060916D0580916A0590916B050E946A0181
:100EF00080916A0590916B054D815E8169817A814F
:100F0000DC01ED91FC910280F381E02D0995CE0189
:100F100001960E947A050E94EE0326960FB6F89479
:100F2000DEBF0FBECDBFDF91CF911F910F9108950E
:100F30001F920F920FB60F9211242F933F934F934E
:100F40005F936F937F938F939F93AF93BF93EF9331
:100F5000FF938CE792E00E944002FF91EF91BF91D6
:100F6000AF919F918F917F916F915F914F913F9141
:100F70002F910F900FBE0F901F9018951F920F92F8
:100F80000FB60F9211242F938F939F93EF93FF939C
:100F9000E0918C02F0918D028081E0919202F091BB
:100FA000930282FD1BC09081809195028F5F8F73A9
:100FB00020919602821741F0E0919502F0E0E4580A
:100FC000FD4F958F80939502FF91EF919F918F91A7
:100FD0002F910F900FBE0F901F9018958081F4CF26
:100FE0001F920F920FB60F9211242F933F938F935E
:100FF0009F93AF93BF938091230290912402A0917D
:101000002502B091260230911C0223E0230F2D37D8
:1010100058F50196A11DB11D20931C028093230257
:1010200090932402A0932502B093260280911D0282
:1010300090911E02A0911F02B09120020196A11D65
:10104000B11D80931D0290931E02A0931F02B093C6
:101050002002BF91AF919F918F913F912F910F905F
:101060000FBE0F901F90189526E8230F0296A11D22
:10107000B11DD2CF10927F0210927E0288EE93E0D3
:10108000A0E0B0E08093800290938102A09382025E
:10109000B09383028AE291E090937D0280937C0278
:1010A00085EC90E0909389028093880284EC90E034
:1010B00090938B0280938A0280EC90E090938D0253
:1010C00080938C0281EC90E090938F0280938E024B
:1010D00082EC90E0909391028093900286EC90E0F5
:1010E000909393028093920210929502109296022E
:1010F00010929702109298021092700510926F054C
:101100008CE792E090936B0580936A05109221031F
:101110008CE280936D058BE380936C058FE2809366
:101120006E0580E480931C038FE380931D0310926F
:101130001B031092660510926505109268051092C7
:10114000670581E080936305E1E7F5E01192119274
:1011500085E0E53DF807D1F71092200362E971E0E0
:101160008EE592E00E9469056AE971E084E692E00A
:101170000E9469056DE971E08AE692E00E946905C6
:1011800061EA71E080E792E00E94690568E371E03E
:1011900086E792E00E94690566EA71E088E292E0E3
:1011A0000E94690560EB71E08EE292E00E946905A1
:1011B00069EB71E084E392E00E94690567EC71E0FD
:1011C0008AE392E00E94690567ED71E080E492E0B5
:1011D0000E94690565EE71E086E492E00E9469056F
:1011E00065EF71E08CE492E00E94690564E072E0D2
:1011F00082E592E00E94690568E371E088E592E08B
:101200000C946905CF93DF93CDB7DEB762970FB625
:10121000F894DEBF0FBECDBF789484B5826084BDE4
:1012200084B5816084BD85B5826085BD85B58160EA
:1012300085BD80916E00816080936E001092810068
:101240008091810082608093810080918100816023
:1012500080938100809180008160809380008091E4
:10126000B10084608093B1008091B0008160809370
:10127000B00080917A00846080937A0080917A0037
:10128000826080937A0080917A00816080937A00F6
:1012900080917A00806880937A001092C100E0917A
:1012A0008C02F0918D0282E08083E0918802F091BF
:1012B00089021082E0918A02F0918B028FEC808388
:1012C00010929402E0919002F091910286E0808366
:1012D000E0918E02F0918F02808180618083E091A5
:1012E0008E02F0918F02808188608083E0918E026F
:1012F000F0918F02808180688083E0918E02F0916E
:101300008F0280818F7D808380911903811109C0B4
:1013100083E00E94890489E291E00E9471010E94A9
:10132000EE038EE994E09093700580936F0522E8B8
:1013300035E0309372052093710524EB33E0309350
:10134000760520937505909378058093770582E95B
:1013500093E090937E0580937D0510922202109277
:10136000210216E0E0902102F09022021E9DC001B1
:101370001F9D900D1124825A9D4F0E94A30381113D
:101380003BC0F701EE0FFF1FE25EFE4F80819181AF
:101390009927FC01E059FE4F2491845A9E4FFC018D
:1013A00084918823C9F090E0880F991FFC01E85BC5
:1013B000FE4F45915491FC01E25CFE4FA591B49122
:1013C0009FB7F894FA013081822F80958323808320
:1013D000EC912E2B2C939FBF8091210290912202A1
:1013E0000196909322028093210265E070E080E0F4
:1013F00090E00E944B03B6CF10922202109221027D
:1014000016E0E0902102F09022021E9DC0011F9D77
:10141000900D1124885D9D4F0E94A303811140C04F
:10142000F701EE0FFF1FE25FFE4F80819181992748
:10143000FC01E059FE4F2491845A9E4FFC01849197
:10144000882399F090E0880F991FFC01E85BFE4F1C
:10145000A591B491FC01E25CFE4F859194918FB708
:10146000F894EC91E22BEC938FBFE0902102F09086
:101470002202F701EE0FFF1FE25FFE4F60E0808166
:101480000E94F802FFEFEF1AFF0AF0922202E092A8
:10149000210265E070E080E090E00E944B03B1CF54
:1014A00010922202109221027724739480912702D5
:1014B000882309F4B4C03EE5A32E32E0B32E40E009
:1014C000C42E41E0D42E5EE1852E51E0952EC5015B
:1014D0000E94A3038111A3C0D401ED90FD904D01A2
:1014E00097013327F901EC57FE4F8491F901E05938
:1014F000FE4F1491F901E45AFE4F0491002309F4C0
:1015000042C081110E94CF02E02FF0E0EE0FFF1FDA
:10151000EE5AFE4FA591B491EC911E2391E080E02C
:1015200009F490E0092F182FF6018081918180172E
:10153000910709F45FC0B701CE010D9601151105A1
:1015400029F10E941705BE01635F7F4FCE01079608
:101550000E944F05EB84FC84F2E0EF0EF11CB70112
:10156000CE0107960E94BC04882329F12F8138857B
:101570008B859C8565E172E0820F931F0E94180F96
:10158000FC86EB861CC010E000E0CECF0E94170561
:10159000BE01635F7F4FCE0107960E944F05EB842B
:1015A000FC8422E0E20EF11CB701CE0107960E94F6
:1015B000BC0481112DC0CE0107960E94E404BE0137
:1015C000695F7F4FCE0101960E944F0580911903FC
:1015D000811104C0CE0101960E945A07CE010196E6
:1015E0000E947A05CE0107960E947A05CE010D96DB
:1015F0000E947A05D6010D931D936D016AE070E09B
:1016000080E090E00E944B03B6E0AB0EB11C5FCFD0
:101610002F8138858B859C8568E172E0ADCF809104
:1016200020038111E5C080916A0590916B05DC0172
:10163000ED91FC910084F185E02D0995892B09F449
:10164000D7C080916A0590916B05DC01ED91FC910A
:101650000084F185E02D099500E012E081159240AB
:1016600064F480916A0590916B05DC01ED91FC9129
:101670000084F185E02D09958C01E0906A05F090D9
:101680006B0592E6C92E93E0D92E5601912C812C40
:1016900008151905B9F12FB7F8948091230290919C
:1016A0002402A0912502B09126022FBFF701808766
:1016B0009187A287B387D701ED91FC910284F385CE
:1016C000E02DC701099597FFA0C02FB7F89480912E
:1016D000230290912402A0912502B09126022FBFEF
:1016E000F7014085518562857385841B950BA60B98
:1016F000B70B448155816681778184179507A607CA
:10170000B707C8F2F12CE12C0E151F0509F487CF9D
:10171000D6019D916D011092620530916E05209168
:101720001F0390931F03931304C0921302C01092DF
:101730001F0380911B03E82FF0E040916C05E75EEA
:10174000FC4F94133DC03217D9F11186882321F044
:101750007092620510921F0310921B03109266058F
:1017600010926505109268051092670570926305E6
:10177000B0906205B1E0BB1237C00E941901882306
:1017800041F1B0926305B092640580916505909136
:1017900066050E942E0C80931A038233F8F4209180
:1017A00064052223D9F0FC01FF27EE0FFF1FEF583D
:1017B000FA4F0190F081E02D309781F0099514C027
:1017C00091878F5F80931B0390911D03891720F6EB
:1017D000CFCF1092640590E080E0DDCFE0916F05FF
:1017E000F0917005309751F7EFEFEE1AFE0A8CCFAB
:1017F00080E090E0892B09F459CE0E942C028823C6
:1018000009F452CE0E9400004FCED5018D935D01A8
:10181000BFEF8B1A9B0A3CCFCF93DF93CEE5D2E08C
:101820002697CE010E947A0582E0C832D807C1F718
:1018300086E792E00E947A0580E792E00E947A05AE
:101840008AE692E00E947A0584E692E00E947A0598
:101850008EE592E0DF91CF910C947A05FC01882708
:101860009927E89421912032E9F3293010F02E30A5
:10187000C8F32B3241F02D3239F4689404C00E9431
:10188000930C820F911D219120532A30C0F31EF436
:10189000909581959F4F08951F93FC019927882764
:1018A000BC01E89411911032E9F3193010F01E30A8
:1018B000C8F31B3251F01D3249F4689406C00E94EF
:1018C0007E0C610F711D811D911D119110531A30F5
:1018D000B0F33EF490958095709561957F4F8F4F52
:1018E0009F4F1F910895BB274A3031F4992322F46A
:1018F000BDE2909581959F4F0C949C0C592F482FD9
:10190000372F262F660F771F881F991F660F771FA7
:10191000881F991F620F731F841F951F660F771F03
:10192000881F991F08957AE0979F902D879F802D9B
:10193000910D11240895BB27FB015527AA27880F75
:10194000991FAA1FA41710F0A41B83955051B9F733
:10195000A05DAA3308F0A95DA193009779F7B111B2
:10196000B1931192CB010C94B50CDC01FC01672FF3
:1019700071917723E1F7329704C07C916D93708366
:101980006291AE17BF07C8F308952F923F924F920E
:101990005F926F927F928F929F92AF92BF92CF92FF
:1019A000DF92EF92FF920F931F93CF93DF93CDB708
:1019B000DEB7CA1BDB0B0FB6F894DEBF0FBECDBF80
:1019C00009942A88398848885F846E847D848C8451
:1019D0009B84AA84B984C884DF80EE80FD800C815A
:1019E0001B81AA81B981CE0FD11D0FB6F894DEBF3D
:1019F0000FBECDBFED010895A1E21A2EAA1BBB1B9D
:101A0000FD010DC0AA1FBB1FEE1FFF1FA217B307CA
:101A1000E407F50720F0A21BB30BE40BF50B661FE0
:101A2000771F881F991F1A9469F7609570958095A4
:101A300090959B01AC01BD01CF010895EE0FFF1FF2
:101A40000590F491E02D09940F931F93CF93DF93AA
:101A50008230910510F482E090E0E091D705F0919A
:101A6000D80530E020E0B0E0A0E0309799F42115EF
:101A7000310509F44AC0281B390B24303105D8F54B
:101A80008A819B816115710589F1FB0193838283B2
:101A9000FE0111C04081518102811381481759070D
:101AA000E0F04817590799F4109761F012960C93DB
:101AB000129713961C933296CF01DF91CF911F910D
:101AC0000F9108950093D7051093D805F4CF2115F1
:101AD000310551F04217530738F0A901DB019A0193
:101AE000BD01DF01F801C1CFEF01F9CF9093D80517
:101AF0008093D705CDCFFE01E20FF31F8193919321
:101B00002250310939832883D7CF2091D5053091D0
:101B1000D605232B41F420910A0130910B0130931B
:101B2000D6052093D5052091080130910901211592
:101B3000310541F42DB73EB740910C0150910D0194
:101B4000241B350BE091D505F091D605E217F3077C
:101B5000A0F42E1B3F0B2817390778F0AC014E5F1D
:101B60005F4F2417350748F04E0F5F1F5093D6057F
:101B70004093D505819391939FCFF0E0E0E09CCF17
:101B8000CF93DF930097E9F0FC0132971382128222
:101B9000A091D705B091D805ED0130E020E0109775
:101BA000A1F420813181820F931F2091D5053091BE
:101BB000D6052817390709F061C0F093D605E093E0
:101BC000D505DF91CF910895EA01CE17DF07E8F53B
:101BD0004A815B819E0141155105B1F7E901FB8303
:101BE000EA8349915991C40FD51FEC17FD0761F4A1
:101BF000808191810296840F951FE90199838883E2
:101C0000828193819B838A83F0E0E0E012968D913C
:101C10009C9113970097B9F52D913C911197CD01A7
:101C20000296820F931F2091D5053091D605281773
:101C3000390739F6309751F51092D8051092D7052B
:101C4000B093D605A093D505BCCFD383C283408182
:101C50005181840F951FC817D90761F44E5F5F4FFC
:101C600088819981480F591F518340838A819B81C4
:101C7000938382832115310509F0B0CFF093D80505
:101C8000E093D7059ECFFD01DC01C0CF1382128205
:101C9000D7CFB0E0A0E0EFE4FEE00C94C70C8C01DD
:101CA000009751F4CB010E94240D8C01C801CDB7DF
:101CB000DEB7E0E10C94E30CFC01E60FF71F9C019A
:101CC00022503109E217F30708F49DC0D901CD91E4
:101CD000DC911197C617D70798F0C530D10530F3BE
:101CE000CE0104978617970708F3C61BD70B2297D8
:101CF000C193D1936D937C93CF010E94C00DD6CF39
:101D00005B01AC1ABD0A4C018C0E9D1EA091D7053B
:101D1000B091D805512C412CF12CE12C109731F5C4
:101D20008091D5059091D6058815990509F05CC07C
:101D30004616570608F058C0809108019091090195
:101D4000009741F48DB79EB740910C0150910D0161
:101D5000841B950BE817F90708F055C0F093D605DA
:101D6000E093D505F90171836083A0CF8D919C919B
:101D7000119712966C90129713967C901397A81552
:101D8000B90559F56C0142E0C40ED11CCA14DB043C
:101D900020F1AC014A195B09DA011296159780F01F
:101DA0006282738251834083D9016D937C93E114E5
:101DB000F10471F0D7011396FC93EE93129776CF4E
:101DC00022968C0F9D1FF90191838083F301EFCF41
:101DD000F093D805E093D70569CF4816590608F463
:101DE0002C017D01D3019ACFCB010E94240D7C01EF
:101DF000009749F0AE01B8010E94060FC8010E9489
:101E0000C00D870153CF10E000E050CFFB01DC0193
:101E100002C001900D9241505040D8F70895FB0147
:101E2000DC018D91019080190110D9F3990B08956F
:101E3000FB01DC0101900D920020E1F7089510E014
:101E4000CDECD0E004C0FE010E941E0D2196CE3CD8
:081E5000D107C9F7F894FFCF98
:101E5800FFFFFFFFFFFFFFFF0000D9058000020022
:101E68000C000B0007000A000900060008000E001D
:101E78000F0010001100000000006202C201EF0113
:101E8800AF022002FE011202454E44005354415253
:101E980054000D0A00554E4B4E4F574E20434F4DA0
:101EA8004D414E4400494E49540050494E47005058
:101EB8004F4E4700434F4E464947004F5054494FF5
:101EC8004E00535041445F50555348425554544F67
:101ED8004E0053574954434800535041445F4C45C2
:101EE800440054524947474552005550004F464612
:101EF80000444F574E004241434B4C494748540019
:101F080053454C454E4F4944004E4F534520474595
:101F1800415220524544004E4F53452047454152B7
:101F280020475245454E004C4546542047454152AE
:101F380020524544004C45465420474541522047CD
:101F48005245454E00524947485420474541522082
:101F5800524544005249474854204745415220477A
:0C1F68005245454E002C30002C3100008A
:00000001FF
