:100000000C94DA000C9402010C9402010C9402018D
:100010000C9402010C9402010C9402010C94020154
:100020000C9402010C9402010C9402010C94020144
:100030000C9402010C9402010C9402010C94020134
:100040000C9411080C9402010C94DF070C94B9076E
:100050000C9402010C9402010C9402010C94020114
:100060000C9402010C940201494E505554004F5516
:10007000545055540053544154455343414E004E3F
:100080004F5F444953504C41595F434C4541523DA9
:100090003100444154415F434F4F4C444F574E3D14
:1000A00030004F55545F434F4F4C444F574E3D30F7
:1000B0000050414745535550504F52543D31005523
:1000C000495F545950453D3000495347454E4552CC
:1000D00049433D3100415554484F523D6439323314
:1000E000373934336637353936386438316531322B
:1000F0006166663132613835613234300033004335
:100100004F52452D4C414E44494E472047454152A0
:10011000204C455645520065623664626336642D54
:10012000613137392D343631392D383261612D66E0
:1001300030373930363230396663640053504144C9
:1001400000415454414348494E472043414C4C429E
:1001500041434B53210000000000250028002B00E4
:1001600000000000240027002A00000000002300F7
:100170002600290004040404040404040202020208
:10018000020203030303030301020408102040805A
:1001900001020408102001020408102000000008D9
:1001A000000201000003040700000000000000003E
:1001B0005B082D0C11241FBECFEFD8E0DEBFCDBFF2
:1001C00025E0A0E2B2E001C01D92AD3DB207E1F72B
:1001D00012E0A0E0B1E0EAE9FEE102C005900D9274
:1001E000A032B107D9F710E0C9EDD0E004C02197E3
:1001F000FE010E943F0DC83DD107C9F70E942309A7
:100200000C94400F0C940000AC01109222039091CA
:10021000720580917105FA01BF01641B750B209175
:100220002203308130932203931304C0921302C03F
:10023000109222033081311104C0921721F0CB01BA
:1002400008953817D1F33196E7CF0F931F93CF93CB
:10025000DF9380916605882309F446C0D0E0C0E0B2
:10026000813029F482E080936605C6E2D3E0809174
:100270006705882341F1209721F4C0916B05D09147
:100280006C058E01CE010E940401892B29F4219670
:10029000F80180818111F5CFF8018081882309F16F
:1002A000C8010E940401F801E80FF91F808188232A
:1002B00011F010823196F0936C05E0936B0510936A
:1002C0006A05009369058091690590916A05892BFB
:1002D00059F081E080936705DF91CF911F910F91D5
:1002E000089510E000E0EBCF80E0F6CFDC01ED9167
:1002F000FC910190F081E02D0994EF92FF920F9311
:100300001F93CF93DF9320911D032223E9F08C01EB
:100310006091710580916E0590916F050E94760144
:10032000E0906E05F0906F05E801FE016491662390
:1003300059F0D701ED91FC910190F081E02DC701BA
:1003400009952196892B89F7DF91CF911F910F9104
:10035000FF90EF900895CF93DF9320911D03222308
:10036000D1F0EC016091710580916E0590916F055F
:100370000E94760180916E0590916F054C815D81A0
:1003800068817981DC01ED91FC910280F381E02D9F
:10039000DF91CF910994DF91CF910895AF92BF92F1
:1003A000CF92DF92EF92FF920F931F93CF93DF9341
:1003B0006C017B018B01040F151FEB015E01AE1870
:1003C000BF08C017D10759F06991D601ED91FC9192
:1003D0000190F081E02DC6010995892B79F7C501BF
:1003E000DF91CF911F910F91FF90EF90DF90CF9011
:1003F000BF90AF900895FC01538D448D252F30E0C0
:10040000842F90E0821B930B541710F0CF96089521
:1004100001970895FC01918D828D981761F0A28D4E
:10042000AE0FBF2FB11D5D968C91928D9F5F9F7314
:10043000928F90E008958FEF9FEF0895FC01918DCA
:10044000828D981731F0828DE80FF11D858D90E037
:1004500008958FEF9FEF0895FC01918D228D892FD4
:1004600090E0805C9F4F821B91098F7399270895BC
:1004700080E892E00E942C0221E0892B09F420E020
:10048000822F089580E090E0892B29F00E943802A5
:1004900081110C9400000895FC01A48DA80FB92FC0
:1004A000B11DA35ABF4F2C91848D90E001968F739C
:1004B0009927848FA689B7892C93A089B1898C91BB
:1004C000837080648C93938D848D981306C002880A
:1004D000F389E02D80818F7D80830895EF92FF92D4
:1004E0000F931F93CF93DF93EC0181E0888F9B8D57
:1004F0008C8D98131AC0E889F989808185FF15C011
:100500009FB7F894EE89FF896083E889F989808133
:100510008370806480839FBF81E090E0DF91CF9102
:100520001F910F91FF90EF900895F62E0B8D10E024
:100530000F5F1F4F0F731127E02E8C8D8E110CC093
:100540000FB607FCFACFE889F989808185FFF5CFDE
:10055000CE010E944C02F1CFEB8DEC0FFD2FF11D6F
:10056000E35AFF4FF0829FB7F8940B8FEA89FB891B
:1005700080818062CFCFCF93DF93EC01888D882379
:10058000B9F0AA89BB89E889F9898C9185FD03C0F6
:10059000808186FD0DC00FB607FCF7CF8C9185FFDB
:1005A000F2CF808185FFEDCFCE010E944C02E9CFD2
:1005B000DF91CF910895833081F028F4813099F054
:1005C0008230A9F008958730A9F08830C9F08430CE
:1005D000B1F4809180008F7D03C0809180008F777F
:1005E00080938000089584B58F7784BD089584B585
:1005F0008F7DFBCF8091B0008F778093B0000895FE
:100600008091B0008F7DF9CF1F93CF93DF93282F78
:1006100030E0F901E456FE4F8491F901E857FE4FAE
:10062000D491F901EC58FE4FC491CC23A9F0162FB8
:1006300081110E94DB02EC2FF0E0EE0FFF1FEA5A5F
:10064000FE4FA591B4918FB7F894EC91111108C0A9
:10065000D095DE23DC938FBFDF91CF911F9108955A
:10066000DE2BF8CF3FB7F8948091210290912202BF
:10067000A0912302B091240226B5A89B05C02F3F6C
:1006800019F00196A11DB11D3FBFBA2FA92F982FB8
:100690008827BC01CD01620F711D811D911D42E0B3
:1006A000660F771F881F991F4A95D1F708958F927B
:1006B0009F92AF92BF92CF92DF92EF92FF924B0147
:1006C0005C010E9432036B017C010E9432036C19B1
:1006D0007D098E099F09683E734081059105A8F345
:1006E00021E0821A9108A108B10888EEC80E83E0C3
:1006F000D81EE11CF11C81149104A104B10429F756
:10070000FF90EF90DF90CF90BF90AF909F908F9031
:1007100008950E942501882359F081E080936705A0
:10072000809368058091690590916A050C946D0C21
:100730001092680560E070E0CB010895CF930E94AD
:100740008903C62F0E948903672B682B692B29F028
:1007500061E08C2FCF910C94040360E0FACFFC0190
:1007600024813581232B49F068E371E080819181F8
:100770000E94300F21E0892B09F020E0822F08959C
:10078000CF93DF930E9425018823B1F081E080930D
:10079000670580936805C0916905D0916A056CE38F
:1007A00071E0CE010E94300F892B59F481E08093D3
:1007B0002B02DF91CF91089510926805D0E0C0E040
:1007C000EECF62E471E0CE010E94300F892B89F7F1
:1007D00010922B02EECFFB0101900020E9F7319738
:1007E000AF01461B570BDC01ED91FC910280F381B8
:1007F000E02D099480911D038823A1F0609170057C
:1008000080916E0590916F050E947601809125037D
:10081000882341F067E471E080916E0590916F0547
:100820000E94EB031092240310921D0380E00895B0
:100830008F929F92AF92BF92EF92FF920F931F936E
:10084000CF93DF93CDB7DEB7A1970FB6F894DEBF95
:100850000FBECDBF7C01FA01CB0119A2223008F4F2
:100860002AE08E010F5D1F4F822E912CB12CA12CFE
:10087000BF01A50194010E941D0DF901CA016A3052
:100880000CF5605DD8016E938D01232B242B252B55
:1008900079F790E080E0109721F0BD01C7010E9438
:1008A000EB03A1960FB6F894DEBF0FBECDBFDF916C
:1008B000CF911F910F91FF90EF90BF90AF909F90BD
:1008C0008F900895695CDECFCF92DF92EF92FF9216
:1008D000CF93DF936C016091710580916E059091CB
:1008E0006F050E947601C0916E05D0916F050D2CA9
:1008F000000CEE08FF082AE0B701A601F7FE0CC0C5
:100900006DE2CE010E94760144275527BA014C19A9
:100910005D096E097F092AE0CE01DF91CF91FF903A
:10092000EF90DF90CF900C94180490911D039111DB
:1009300010C091E090931D0390932403482F50E042
:1009400070E060E02AE080916E0590916F050C9454
:100950001804089580911D03811119C083E00E943D
:10096000950480911D03882381F060917105809129
:100970006E0590916F050E9476016AE471E08091A6
:100980006E0590916F050E94EB030C94FA03089595
:100990000F931F93CF93DF93EC0188819981009788
:1009A00059F02A813B812617370730F081E0DF912B
:1009B000CF911F910F9108958B016F5F7F4F0E9420
:1009C0006A0E009759F0998388831B830A832C81D0
:1009D0003D81232B59F7FC011082E8CF80E0E7CF5F
:1009E000CF93DF93EC0188819981009711F00E94E9
:1009F000E10D198218821D821C821B821A82DF91EE
:100A0000CF910895EF92FF920F931F93CF93DF93AF
:100A1000EC017B018A01BA010E94C80481110BC05C
:100A2000CE010E94F004CE01DF91CF911F910F9172
:100A3000FF90EF9008951D830C83B7018881998101
:100A40000E94390FF0CFEF92FF920F931F93CF9335
:100A5000DF93CDB7DEB762970FB6F894DEBF0FBE57
:100A6000CDBF8C01CB01F80111821082138212825A
:100A7000158214824AE09E012F5F3F4F7901B90130
:100A80000E94940CF70101900020E9F73197AF0123
:100A90004E195F09B701C8010E94020562960FB6A0
:100AA000F894DEBF0FBECDBFDF91CF911F910F91A4
:100AB000FF90EF900895FB01DC0111961C921E92AD
:100AC00013961C921E92129715961C921E921497C2
:100AD0008617970749F0608171816115710521F0D2
:100AE000448155810C9402050895FC011182108205
:100AF0001382128215821482FB0101900020E9F713
:100B00003197AF01461B570B0C940205FC01808105
:100B10009181009711F00C94E10D0895CF92DF922E
:100B2000EF92FF920F931F93CF93DF93CDB7DEB772
:100B300068970FB6F894DEBF0FBECDBF0E942501A7
:100B4000882381F181E08093670580936805009197
:100B5000690510916A056AE571E0C8010E94300FCD
:100B6000892B29F580E00E9495048CE391E00E9496
:100B70007D0187E191E00E947D018FEF90E00E946E
:100B80007D0180911D03882321F082E090E00E9486
:100B900064048DEF90E00E947D0185ED90E00E945D
:100BA0007D014CC01092680510E000E0D4CF6FE5E5
:100BB00071E0C8010E94300F892B09F050C080E01D
:100BC0000E94950480911D03882381F06091710536
:100BD00080916E0590916F050E94760164E671E048
:100BE00080916E0590916F050E94EB030E9489032E
:100BF0006B017C0180911D03882301F160917105D7
:100C000080916E0590916F050E94760100916E05AE
:100C100010916F052AE0B701A601F7FE0CC06DE246
:100C2000C8010E94760144275527BA014C195D0975
:100C30006E097F092AE0C8010E9418040E94FA0385
:100C400068960FB6F894DEBF0FBECDBFDF91CF918F
:100C50001F910F91FF90EF90DF90CF90089569E67C
:100C600071E0C8010E94300F892B09F033C180E088
:100C70000E94950480911D03882381F06091710585
:100C800080916E0590916F050E94760160E771E09A
:100C900080916E0590916F050E94EB0389EC90E0C6
:100CA0000E947D018FEB90E00E947D0181EB90E03E
:100CB0000E947D0182EA90E00E947D0182E990E03D
:100CC0000E947D018FE790E00E947D010E94FA035F
:100CD00002E612E09EE1E92E91E0F92EC8010E94A1
:100CE000AF03882309F472C00CE212E08EE0E82E14
:100CF00081E0F82EC8010E94AF038111CEC063E8E5
:100D000071E0CE0143960E94750568E871E0CE015E
:100D10000D960E947505B801CE0107960E945B05ED
:100D2000F701C190D1907F0180E00E9495048EE68A
:100D300090E00E947D0180911D03882319F0C60177
:100D40000E946404BE01695F7F4FCE0101960E943C
:100D50005B05CE0101960E94AB01CE0101960E9477
:100D60008605BE01635F7F4FCE0101960E945B0541
:100D7000CE0101960E94AB01CE0101960E9486052C
:100D8000BE016D5E7F4FCE0101960E945B05CE01D4
:100D900001960E94AB01CE0101960E9486050E9439
:100DA000FA03CE0107960E948605CE010D960E9499
:100DB0008605CE0143960E94860565E070E080E0DE
:100DC00090E00E9457030A5F1F4F94CF67E771E0DE
:100DD000CE0143960E9475056CE771E0CE010D9639
:100DE0000E947505B801CE0107960E945B05F701C8
:100DF000C190D1907F0180E00E94950488E690E048
:100E00000E947D0180911D03882319F0C6010E9474
:100E10006404BE01695F7F4FCE0101960E945B05AD
:100E2000CE0101960E94AB01CE0101960E9486057B
:100E3000BE01635F7F4FCE0101960E945B05CE012C
:100E400001960E94AB01CE0101960E948605BE016B
:100E50006D5E7F4FCE0101960E945B05CE0101962B
:100E60000E94AB01CE0101960E9486050E94FA0302
:100E7000CE0107960E948605CE010D960E9486053A
:100E8000CE0143960E94860565E070E080E090E028
:100E90000E9457030A5F1F4F21CF80911D038111CC
:100EA000CDCE0E94950480911D03882381F060912E
:100EB000710580916E0590916F050E94760169E63B
:100EC00071E080916E0590916F050E94EB030E9486
:100ED000FA03B4CE6CE871E0C8010E94300F892B90
:100EE00009F0AECE81E080932B0280E00E94950451
:100EF00085E790E054CE0F931F93CF93DF9300D0FC
:100F000000D000D0CDB7DEB78C0188E00E949504F8
:100F1000B801CE0101960E945B0580911D038823D4
:100F2000B9F06091710580916E0590916F050E94F6
:100F3000760180916E0590916F054D815E8169818A
:100F40007A81DC01ED91FC910280F381E02D09951D
:100F5000CE0101960E9486050E94FA0326960FB6DE
:100F6000F894DEBF0FBECDBFDF91CF911F910F91DF
:100F700008951F920F920FB60F9211242F933F9353
:100F80004F935F936F937F938F939F93AF93BF9391
:100F9000EF93FF9380E892E00E944C02FF91EF9163
:100FA000BF91AF919F918F917F916F915F914F9181
:100FB0003F912F910F900FBE0F901F9018951F9289
:100FC0000F920FB60F9211242F938F939F93EF934D
:100FD000FF93E0919002F09191028081E09196025E
:100FE000F091970282FD1BC09081809199028F5FE2
:100FF0008F7320919A02821741F0E0919902F0E0FC
:10100000E058FD4F958F80939902FF91EF919F914A
:101010008F912F910F900FBE0F901F901895808188
:10102000F4CF1F920F920FB60F9211242F933F937C
:101030008F939F93AF93BF93809127029091280243
:10104000A0912902B0912A023091200223E0230FBF
:101050002D3758F50196A11DB11D209320028093D4
:10106000270290932802A0932902B0932A0280912C
:10107000210290912202A0912302B09124020196B4
:10108000A11DB11D8093210290932202A0932302FF
:10109000B0932402BF91AF919F918F913F912F9177
:1010A0000F900FBE0F901F90189526E8230F029601
:1010B000A11DB11DD2CF109283021092820288EE40
:1010C00093E0A0E0B0E08093840290938502A09327
:1010D0008602B09387028AE291E090938102809326
:1010E000800285EC90E090938D0280938C0284ECDA
:1010F00090E090938F0280938E0280EC90E090932A
:1011000091028093900281EC90E0909393028093FF
:10111000920282EC90E0909395028093940286EC88
:1011200090E0909397028093960210929902109209
:101130009A0210929B0210929C02109274051092D7
:10114000730580E892E090936F0580936E0510928E
:1011500025038CE2809371058BE3809370058FE209
:101160008093720580E4809320038FE380932103B2
:1011700010921F0310926A051092690510926C0577
:1011800010926B0581E080936705E5E7F5E0119229
:10119000119285E0E93DF807D1F71092240366E942
:1011A00071E082E692E00E9475056EE971E088E6E2
:1011B00092E00E94750561EA71E08EE692E00E947D
:1011C000750565EA71E084E792E00E94750568E3C1
:1011D00071E08AE792E00E9475056AEA71E08CE2AC
:1011E00092E00E94750564EB71E082E392E00E9458
:1011F00075056DEB71E088E392E00E9475056BEC7C
:1012000071E08EE392E00E9475056BED71E084E47D
:1012100092E00E94750569EE71E08AE492E00E9416
:10122000750569EF71E080E592E00E94750568E060
:1012300072E086E592E00E94750568E371E08CE556
:1012400092E00C947505CF93DF93CDB7DEB762972C
:101250000FB6F894DEBF0FBECDBF789484B5826020
:1012600084BD84B5816084BD85B5826085BD85B54A
:10127000816085BD80916E00816080936E001092C8
:101280008100809181008260809381008091810043
:1012900081608093810080918000816080938000D4
:1012A0008091B10084608093B1008091B000816032
:1012B0008093B00080917A00846080937A0080915E
:1012C0007A00826080937A0080917A0081608093B6
:1012D0007A0080917A00806880937A001092C10031
:1012E000E0919002F091910282E08083E0918C0283
:1012F000F0918D021082E0918E02F0918F028FECBE
:10130000808310929802E0919402F091950286E019
:101310008083E0919202F0919302808180618083CA
:10132000E0919202F0919302808188608083E09145
:101330009202F0919302808180688083E091920212
:10134000F091930280818F7D808380911D038111B4
:1013500009C083E00E94950481E491E00E947D0130
:101360000E94FA038AEA94E09093740580937305CF
:101370002EE835E0309376052093750520EC33E0B8
:1013800030937A052093790590937C0580937B05B3
:101390008EE993E090938205809381051092260256
:1013A0001092250216E0E0902502F09026021E9D84
:1013B000C0011F9D900D11248E599D4F0E94AF03B7
:1013C00081113BC0F701EE0FFF1FE25EFE4F8081EF
:1013D00091819927FC01E857FE4F24918C589E4F2C
:1013E000FC0184918823C9F090E0880F991FFC01CB
:1013F000E05AFE4F45915491FC01EA5AFE4FA591E7
:10140000B4919FB7F894FA013081822F809583239D
:101410008083EC912E2B2C939FBF8091250290917D
:1014200026020196909326028093250265E070E0E3
:1014300080E090E00E945703B6CF109226021092EF
:10144000250216E0E0902502F09026021E9DC001C4
:101450001F9D900D1124845D9D4F0E94AF0381114B
:1014600040C0F701EE0FFF1FE25FFE4F80819181C8
:101470009927FC01E857FE4F24918C589E4FFC01A0
:101480008491882399F090E0880F991FFC01E05A1D
:10149000FE4FA591B491FC01EA5AFE4F85919491BB
:1014A0008FB7F894EC91E22BEC938FBFE09025027C
:1014B000F0902602F701EE0FFF1FE25FFE4F60E0A3
:1014C00080810E940403FFEFEF1AFF0AF0922602C8
:1014D000E092250265E070E080E090E00E94570312
:1014E000B1CF109226021092250277247394809136
:1014F0002B02882309F4B4C032E6A32E32E0B32EC7
:1015000040E0C42E41E0D42E5EE1852E51E0952EC0
:10151000C5010E94AF038111A3C0D401ED90FD90DD
:101520004D0197013327F901E456FE4F8491F901EB
:10153000E857FE4F1491F901EC58FE4F0491002337
:1015400009F442C081110E94DB02E02FF0E0EE0FAF
:10155000FF1FE659FE4FA591B491EC911E2391E037
:1015600080E009F490E0092F182FF6018081918125
:101570008017910709F45FC0B701CE010D960115E0
:10158000110529F10E942305BE01635F7F4FCE0143
:1015900007960E945B05EB84FC84F2E0EF0EF11CE1
:1015A000B701CE0107960E94C804882329F12F8134
:1015B00038858B859C8569E172E0820F931F0E94BC
:1015C000390FFC86EB861CC010E000E0CECF0E94F5
:1015D0002305BE01635F7F4FCE0107960E945B0526
:1015E000EB84FC8422E0E20EF11CB701CE010796E9
:1015F0000E94C80481112DC0CE0107960E94F004FC
:10160000BE01695F7F4FCE0101960E945B0580910C
:101610001D03811104C0CE0101960E947B07CE01FB
:1016200001960E948605CE0107960E948605CE018E
:101630000D960E948605D6010D931D936D0164E100
:1016400070E080E090E00E945703B6E0AB0EB11C62
:101650005FCF2F8138858B859C856CE172E0ADCFA3
:10166000809124038111E5C080916E0590916F05F2
:10167000DC01ED91FC910084F185E02D0995892B29
:1016800009F4D7C080916E0590916F05DC01ED9152
:10169000FC910084F185E02D099500E012E08115B0
:1016A000924064F480916E0590916F05DC01ED919C
:1016B000FC910084F185E02D09958C01E0906E0588
:1016C000F0906F0596E6C92E93E0D92E5601912C25
:1016D000812C08151905B9F12FB7F89480912702CC
:1016E00090912802A0912902B0912A022FBFF70100
:1016F00080879187A287B387D701ED91FC910284FF
:10170000F385E02DC701099597FFA0C02FB7F89486
:101710008091270290912802A0912902B0912A027B
:101720002FBFF7014085518562857385841B950B1A
:10173000A60BB70B44815581668177818417950785
:10174000A607B707C8F2F12CE12C0E151F0509F406
:1017500087CFD6019D916D0110926605309172057B
:101760002091230390932303931304C0921302C088
:101770001092230380911F03E82FF0E04091700541
:10178000E35EFC4F94133DC03217D9F111868823D4
:1017900021F0709266051092230310921F0310929D
:1017A0006A051092690510926C0510926B05709293
:1017B0006705B0906605B1E0BB1237C00E942501F5
:1017C000882341F1B0926705B09268058091690560
:1017D00090916A050E944F0C80931E038233F8F4A7
:1017E000209168052223D9F0FC01FF27EE0FFF1F8F
:1017F000EB58FA4F0190F081E02D309781F0099578
:1018000014C091878F5F80931F03909121038917E4
:1018100020F6CFCF1092680590E080E0DDCFE09118
:101820007305F0917405309751F7EFEFEE1AFE0A49
:101830008CCF80E090E0892B09F459CE0E943802C9
:10184000882309F452CE0E9400004FCED5018D931B
:101850005D01BFEF8B1A9B0A3CCFCF93DF93C2E6AB
:10186000D2E02697CE010E94860582E0CC32D807CE
:10187000C1F78AE792E00E94860584E792E00E9421
:1018800086058EE692E00E94860588E692E00E9438
:10189000860582E692E0DF91CF910C948605FC01EB
:1018A00088279927E89421912032E9F3293010F014
:1018B0002E30C8F32B3241F02D3239F4689404C035
:1018C0000E94B40C820F911D219120532A30C0F345
:1018D0001EF4909581959F4F08951F93FC019927C1
:1018E0008827BC01E89411911032E9F3193010F007
:1018F0001E30C8F31B3251F01D3249F4689406C003
:101900000E949F0C610F711D811D911D119110533B
:101910001A30B0F33EF490958095709561957F4FA5
:101920008F4F9F4F1F910895BB274A3031F4992361
:1019300022F4BDE2909581959F4F0C94BD0C592FD8
:10194000482F372F262F660F771F881F991F660F86
:10195000771F881F991F620F731F841F951F660FC3
:10196000771F881F991F08957AE0979F902D879F72
:10197000802D910D11240895BB27FB015527AA271F
:10198000880F991FAA1FA41710F0A41B839550510C
:10199000B9F7A05DAA3308F0A95DA193009779F784
:1019A000B111B1931192CB010C94D60CDC01FC0166
:1019B000672F71917723E1F7329704C07C916D9383
:1019C00070836291AE17BF07C8F308952F923F92BC
:1019D0004F925F926F927F928F929F92AF92BF923F
:1019E000CF92DF92EF92FF920F931F93CF93DF93EB
:1019F000CDB7DEB7CA1BDB0B0FB6F894DEBF0FBE48
:101A0000CDBF09942A88398848885F846E847D8494
:101A10008C849B84AA84B984C884DF80EE80FD8096
:101A20000C811B81AA81B981CE0FD11D0FB6F8940C
:101A3000DEBF0FBECDBFED010895A1E21A2EAA1B95
:101A4000BB1BFD010DC0AA1FBB1FEE1FFF1FA2176E
:101A5000B307E407F50720F0A21BB30BE40BF50B6B
:101A6000661F771F881F991F1A9469F760957095F4
:101A7000809590959B01AC01BD01CF010895EE0FBB
:101A8000FF1F0590F491E02D09940F931F93CF93BE
:101A9000DF938230910510F482E090E0E091DB0565
:101AA000F091DC0530E020E0B0E0A0E0309799F460
:101AB0002115310509F44AC0281B390B24303105A2
:101AC000D8F58A819B816115710589F1FB019383AA
:101AD0008283FE0111C04081518102811381481728
:101AE0005907E0F04817590799F4109761F01296DA
:101AF0000C93129713961C933296CF01DF91CF91DE
:101B00001F910F9108950093DB051093DC05F4CF2E
:101B10002115310551F04217530738F0A901DB01B7
:101B20009A01BD01DF01F801C1CFEF01F9CF909318
:101B3000DC058093DB05CDCFFE01E20FF31F81931F
:101B400091932250310939832883D7CF2091D90529
:101B50003091DA05232B41F420910A0130910B01D9
:101B60003093DA052093D9052091080130910901BD
:101B70002115310541F42DB73EB740910C0150912C
:101B80000D01241B350BE091D905F091DA05E21720
:101B9000F307A0F42E1B3F0B2817390778F0AC0190
:101BA0004E5F5F4F2417350748F04E0F5F1F50936D
:101BB000DA054093D905819391939FCFF0E0E0E05F
:101BC0009CCFCF93DF930097E9F0FC01329713820B
:101BD0001282A091DB05B091DC05ED0130E020E040
:101BE0001097A1F420813181820F931F2091D90594
:101BF0003091DA052817390709F061C0F093DA054A
:101C0000E093D905DF91CF910895EA01CE17DF0760
:101C1000E8F54A815B819E0141155105B1F7E90163
:101C2000FB83EA8349915991C40FD51FEC17FD0737
:101C300061F4808191810296840F951FE901998357
:101C40008883828193819B838A83F0E0E0E012960F
:101C50008D919C9113970097B9F52D913C91119717
:101C6000CD010296820F931F2091D9053091DA059C
:101C70002817390739F6309751F51092DC05109284
:101C8000DB05B093DA05A093D905BCCFD383C2831B
:101C900040815181840F951FC817D90761F44E5FA9
:101CA0005F4F88819981480F591F518340838A81F2
:101CB0009B81938382832115310509F0B0CFF09386
:101CC000DC05E093DB059ECFFD01DC01C0CF138274
:101CD0001282D7CFB0E0A0E0E0E7FEE00C94E80C81
:101CE0008C01009751F4CB010E94450D8C01C80175
:101CF000CDB7DEB7E0E10C94040DFC01E60FF71F51
:101D00009C0122503109E217F30708F49DC0D90164
:101D1000CD91DC911197C617D70798F0C530D10542
:101D200030F3CE0104978617970708F3C61BD70B2D
:101D30002297C193D1936D937C93CF010E94E10DC3
:101D4000D6CF5B01AC1ABD0A4C018C0E9D1EA09132
:101D5000DB05B091DC05512C412CF12CE12C1097C6
:101D600031F58091D9059091DA058815990509F02A
:101D70005CC04616570608F058C080910801909143
:101D80000901009741F48DB79EB740910C01509125
:101D90000D01841B950BE817F90708F055C0F09367
:101DA000DA05E093D905F90171836083A0CF8D91A5
:101DB0009C91119712966C90129713967C901397A2
:101DC000A815B90559F56C0142E0C40ED11CCA141E
:101DD000DB0420F1AC014A195B09DA011296159770
:101DE00080F06282738251834083D9016D937C932A
:101DF000E114F10471F0D7011396FC93EE9312975E
:101E000076CF22968C0F9D1FF90191838083F30179
:101E1000EFCFF093DC05E093DB0569CF4816590658
:101E200008F42C017D01D3019ACFCB010E94450D0E
:101E30007C01009749F0AE01B8010E94270FC8014C
:101E40000E94E10D870153CF10E000E050CFFB016D
:101E5000DC0102C001900D9241505040D8F7089526
:101E6000FB01DC018D91019080190110D9F3990BD0
:101E70000895FB01DC0101900D920020E1F7089527
:101E800010E0C9EDD0E004C0FE010E943F0D219694
:0A1E9000CA3DD107C9F7F894FFCF4F
:101E9A00FFFFFFFFFFFFFFFF0000DD0580000200DC
:101EAA000C000B0007000A000900060008000E00DB
:101EBA000F0010001100000000006E02CE01FB01AD
:101ECA00BB022C020A021E02454E440053544152E0
:101EDA00540053544F50000D0A00554E4B4E4F5765
:101EEA004E20434F4D4D414E4400494E49540050F7
:101EFA00494E4700504F4E4700434F4E4649470010
:101F0A004F5054494F4E00535041445F5357495420
:101F1A00434800535041445F4C4544005343414EAB
:101F2A00535441544500545249474745520055506D
:101F3A00004F464600444F574E004241434B4C49DE
:101F4A004748540053454C454E4F4944004E4F5361
:101F5A00455F474541525F524544004E4F53455FE6
:101F6A00474541525F475245454E004C4546545FEE
:101F7A00474541525F524544004C4546545F4745E8
:101F8A0041525F475245454E0052494748545F47C0
:101F9A004541525F5245440052494748545F4745BC
:101FAA0041525F475245454E002C30002C3100000B
:00000001FF
