:100000000C94CE000C94F6000C94F6000C94F600C0
:100010000C94F6000C94F6000C94F6000C94F60088
:100020000C94F6000C94F6000C94F6000C94F60078
:100030000C94F6000C94F6000C94F6000C94F60068
:100040000C944A0A0C94F6000C94180A0C94F209C9
:100050000C94F6000C94F6000C94F6000C94F60048
:100060000C94F6000C94F600494E50555400494E3D
:10007000505554004E4F5F444953504C41595F43D3
:100080004C4541523D3100444154415F434F4F4C38
:10009000444F574E3D3000434D445F434F4F4C4417
:1000A0004F574E3D300050414745535550504F52E9
:1000B000543D3100495347454E455249433D310077
:1000C000413D3132333435363738393031323334DB
:1000D00035363738003100436F7265466C696768A2
:1000E00074546563682D4E61762E20526164696F89
:1000F000204D6F64756C65003635663239333036A5
:100100002D653164372D346135352D616664392DA7
:100110003231643831343637633130300053504136
:10012000440000000000240027002A000000000016
:10013000250028002B0000000000230026002900D5
:10014000040404040404040402020202020203037D
:100150000303030301020408102040800102040885
:100160001020010204081020000000080002010015
:100170000003040700000000000000004154544147
:100180004348494E472043414C4C4241434B532145
:10019000004F555450555400940A9F0E11241FBE11
:1001A000CFEFD8E0DEBFCDBF25E0ACE2B2E001C0CA
:1001B0001D92A53BB207E1F712E0A0E0B1E0E2E555
:1001C000F3E202C005900D92AC32B107D9F710E00E
:1001D000CDECD0E004C02197FE010E949B0FCC3CE7
:1001E000D107C9F70E941A0B0C949C110C940000C3
:1001F000AC011092FA0290914A0580914905FA01EA
:10020000BF01641B750B2091FA0230813093FA0212
:10021000931304C0921302C01092FA02308131117C
:1002200004C0921721F0CB0108953817D1F331960D
:10023000E7CF0F931F93CF93DF9380913E058823E1
:1002400009F446C0D0E0C0E0813029F482E0809318
:100250003E05CEEFD2E080913F05882341F1209703
:1002600021F4C0914305D09144058E01CE010E9436
:10027000F800892B29F42196F80180818111F5CFAE
:10028000F8018081882309F1C8010E94F800F80173
:10029000E80FF91F8081882311F010823196F093C6
:1002A0004405E09343051093420500934105809176
:1002B000410590914205892B59F081E080933F05DB
:1002C000DF91CF911F910F91089510E000E0EBCFE7
:1002D00080E0F6CFDC01ED91FC910190F081E02D02
:1002E0000994EF92FF920F931F93CF93DF93209186
:1002F000F5022223E9F08C016091490580914605C1
:10030000909147050E946A01E0904605F0904705EC
:10031000E801FE016491662359F0D701ED91FC914B
:100320000190F081E02DC70109952196892B89F76D
:10033000DF91CF911F910F91FF90EF900895CF9390
:10034000DF932091F5022223D1F0EC016091490561
:1003500080914605909147050E946A01809146056B
:10036000909147054C815D8168817981DC01ED9137
:10037000FC910280F381E02DDF91CF910994DF9110
:10038000CF910895AF92BF92CF92DF92EF92FF92FA
:100390000F931F93CF93DF936C017B018B01040FAD
:1003A000151FEB015E01AE18BF08C017D10759F049
:1003B0006991D601ED91FC910190F081E02DC6018B
:1003C0000995892B79F7C501DF91CF911F910F9185
:1003D000FF90EF90DF90CF90BF90AF900895FC0119
:1003E000538D448D252F30E0842F90E0821B930B9A
:1003F000541710F0CF96089501970895FC01918D40
:10040000828D981761F0A28DAE0FBF2FB11D5D9642
:100410008C91928D9F5F9F73928F90E008958FEFE4
:100420009FEF0895FC01918D828D981731F0828D98
:10043000E80FF11D858D90E008958FEF9FEF0895EF
:10044000FC01918D228D892F90E0805C9F4F821B53
:1004500091098F739927089588E592E00E94200200
:1004600021E0892B09F420E0822F089580E090E0BC
:10047000892B29F00E942C0281110C940000089510
:10048000FC01A48DA80FB92FB11DA35ABF4F2C9109
:10049000848D90E001968F739927848FA689B78900
:1004A0002C93A089B1898C91837080648C93938DF7
:1004B000848D981306C00288F389E02D80818F7D9A
:1004C00080830895EF92FF920F931F93CF93DF9352
:1004D000EC0181E0888F9B8D8C8D98131AC0E88980
:1004E000F989808185FF15C09FB7F894EE89FF894F
:1004F0006083E889F98980818370806480839FBFED
:1005000081E090E0DF91CF911F910F91FF90EF90EC
:100510000895F62E0B8D10E00F5F1F4F0F731127FC
:10052000E02E8C8D8E110CC00FB607FCFACFE88937
:10053000F989808185FFF5CFCE010E944002F1CF7D
:10054000EB8DEC0FFD2FF11DE35AFF4FF0829FB7AB
:10055000F8940B8FEA89FB8980818062CFCFCF939B
:10056000DF93EC01888D8823B9F0AA89BB89E889DB
:10057000F9898C9185FD03C0808186FD0DC00FB681
:1005800007FCF7CF8C9185FFF2CF808185FFEDCFFF
:10059000CE010E944002E9CFDF91CF9108958330D0
:1005A00081F028F4813099F08230A9F008958730E5
:1005B000A9F08830C9F08430B1F4809180008F7D3B
:1005C00003C0809180008F7780938000089584B568
:1005D0008F7784BD089584B58F7DFBCF8091B00067
:1005E0008F778093B00008958091B0008F7DF9CF10
:1005F000CF93DF93282F30E0F901E859FE4F849123
:10060000F901EC5AFE4FD491F901E05CFE4FC49120
:10061000CC23A1F081110E94CF02EC2FF0E0EE0F6D
:10062000FF1FEA5CFE4FA591B491EC91ED2381E0B0
:1006300090E009F480E0DF91CF91089580E090E0B0
:10064000FACF1F93CF93DF93282F30E0F901E859B9
:10065000FE4F8491F901EC5AFE4FD491F901E05C10
:10066000FE4FC491CC23A9F0162F81110E94CF0216
:10067000EC2FF0E0EE0FFF1FE45DFE4FA591B4916B
:100680008FB7F894EC91111108C0D095DE23DC935C
:100690008FBFDF91CF911F910895DE2BF8CFCF93BD
:1006A000DF9390E0FC01EC5AFE4F2491805C9E4F5A
:1006B000FC0184918823C9F090E0880F991FFC0108
:1006C000EE5DFE4FA591B491FC01E45DFE4FC59136
:1006D000D49161110DC09FB7F8948C91209582231D
:1006E0008C938881282328839FBFDF91CF91089521
:1006F000623051F49FB7F8943C91822F8095832308
:100700008C93E8812E2BEFCF8FB7F894EC912E2BA2
:100710002C938FBFEACF3FB7F8948091320290912B
:100720003302A0913402B091350226B5A89B05C0D2
:100730002F3F19F00196A11DB11D3FBFBA2FA92F60
:10074000982F8827BC01CD01620F711D811D911D5D
:1007500042E0660F771F881F991F4A95D1F70895C9
:100760008F929F92AF92BF92CF92DF92EF92FF92C1
:100770004B015C010E948B036B017C010E948B0387
:100780006C197D098E099F09683E734081059105AA
:10079000A8F321E0821A9108A108B10888EEC80EDA
:1007A00083E0D81EE11CF11C81149104A104B10462
:1007B00029F7FF90EF90DF90CF90BF90AF909F9080
:1007C0008F9008959F92AF92BF92CF92DF92EF9257
:1007D000FF920F931F93CF93DF93A82EC62E909076
:1007E0003A0260E0892D0E94210308E010E030E821
:1007F000E32EF12CB12CD0913C02C5018E219F211A
:1008000061E0892B09F460E08D2F0E942103C091E3
:10081000380261E08C2F0E94210360E08C2F0E943F
:100820002103F594E7940150110929F708E010E03D
:1008300090E8E92EF12CD12CC6018E219F2161E098
:10084000892B09F460E08D2F0E94210361E08C2F39
:100850000E94210360E08C2F0E942103F594E7940D
:100860000150110949F761E0892DDF91CF911F9166
:100870000F91FF90EF90DF90CF90BF90AF909F903F
:100880000C9421030F931F93CF93DF9386E090E0A6
:100890009093300280932F0210922E0210922D021C
:1008A000C0912F02D091300280914A0290914B0268
:1008B000C530D10524F100912D0210912E020817A8
:1008C000190730F4E0914602F09147023097A1F405
:1008D00010922C02ECE2F2E060818C2F0E94E20385
:1008E0000F5F1F4F10932E0200932D022197D0937C
:1008F0003002C0932F02D4CFE00FF11FEDCF24E0E0
:1009000030E03093300220932F0222E030E0309329
:100910002E0220932D02039738F0E0914602F091C9
:100920004702309709F041C010922C02ECE2F2E04D
:100930006081605884E00E94E20383E090E090933D
:10094000300280932F0284E090E090932E028093F7
:100950002D02C0912F02D0913002C230D10554F146
:1009600000912D0210912E0280914A0290914B022B
:100970000817190730F4E0914602F09147023097CA
:10098000B1F410922C02ECE2F2E060818C2F0E9414
:10099000E2030F5F1F4F10932E0200932D02219749
:1009A000D0933002C0932F02D4CF3296C1CFE00F44
:1009B000F11FEBCFDF91CF911F910F9108950E940E
:1009C0001901882359F081E080933F058093400509
:1009D00080914105909142050C94C90E10924005FA
:1009E00060E070E0CB010895FB0101900020E9F781
:1009F0003197AF01461B570BDC01ED91FC91028052
:100A0000F381E02D09948091F5028823A1F0609193
:100A1000480580914605909147050E946A018091A2
:100A2000FD02882341F064E471E0809146059091D5
:100A300047050E94F4041092FC021092F50280E037
:100A400008958F929F92AF92BF92EF92FF920F9371
:100A50001F93CF93DF93CDB7DEB7A1970FB6F8946E
:100A6000DEBF0FBECDBF7C01FA01CB0119A222303F
:100A700008F42AE08E010F5D1F4F822E912CB12CBD
:100A8000A12CBF01A50194010E94790FF901CA01AF
:100A90006A300CF5605DD8016E938D01232B242BF9
:100AA000252B79F790E080E0109721F0BD01C70178
:100AB0000E94F404A1960FB6F894DEBF0FBECDBF1E
:100AC000DF91CF911F910F91FF90EF90BF90AF906A
:100AD0009F908F900895695CDECFCF92DF92EF9266
:100AE000FF920F931F93CF93DF9377FF1DC06A018F
:100AF0007B01EC016DE20E946A018C0144275527BD
:100B0000BA014C195D096E097F092AE0CE010E94E5
:100B10002105800F911FDF91CF911F910F91FF90C1
:100B2000EF90DF90CF9008952AE0DF91CF911F9151
:100B30000F91FF90EF90DF90CF900C9421050F93D1
:100B40001F93CF93DF93EC0106E415E06091490514
:100B5000F801808191810E946A01AE01DD0F660B70
:100B6000770BF80180819181DF91CF911F910F91D7
:100B70000C946D059091F502911110C091E0909345
:100B8000F5029093FC02482F50E070E060E02AE00C
:100B900080914605909147050C9421050895CF93C7
:100BA000DF932091F502222391F0EC016091490539
:100BB00080914605909147050E946A01BE0180918F
:100BC000460590914705DF91CF910C94F404DF9195
:100BD000CF910895CF93DF939091F50291110AC0C0
:100BE000EB010E94BA05CE010E94CF05DF91CF91A3
:100BF0000C94030580E0DF91CF91089567E471E0E4
:100C000083E00C94EA05CF93DF930E9419018823B7
:100C1000B1F081E080933F0580934005C09141058C
:100C2000D091420567E571E0CE010E948C11892BBD
:100C300059F481E080934502DF91CF91089510929D
:100C40004005D0E0C0E0EECF6DE571E0CE010E943E
:100C50008C11892B89F710924502EECF0F931F93C9
:100C6000CF93DF93EC0188819981009759F02A8115
:100C70003B812617370730F081E0DF91CF911F913C
:100C80000F9108958B016F5F7F4F0E94C6100097F0
:100C900059F0998388831B830A832C813D81232B00
:100CA00059F7FC011082E8CF80E0E7CFEF92FF9286
:100CB0000F931F93CF93DF9341155105B1F07B0143
:100CC000EC010C811D81040F151FB8010E942E0636
:100CD000882361F0288139818C819D81B701820F41
:100CE000931F0E9495111D830C8381E0DF91CF91AA
:100CF0001F910F91FF90EF900895EF92FF920F9345
:100D00001F93CF93DF93CDB7DEB728970FB6F89434
:100D1000DEBF0FBECDBF7C01CB014AE08E010F5F6D
:100D20001F4FB8010E94F00EF80101900020E9F772
:100D30003197AF01401B510BB801C7010E94560605
:100D400028960FB6F894DEBF0FBECDBFDF91CF91CE
:100D50001F910F91FF90EF900895EF92FF920F93E4
:100D60001F93CF93DF9300D000D0CDB7DEB77C01C7
:100D7000862F4AE08E010F5F1F4FB80190E00E945E
:100D8000F00EF80101900020E9F73197AF01401B08
:100D9000510BB801C7010E9456060F900F900F909B
:100DA0000F90DF91CF911F910F91FF90EF900895D9
:100DB000CF93DF93EC0188819981009711F00E9415
:100DC0003D10198218821D821C821B821A82DF91BB
:100DD000CF910895EF92FF920F931F93CF93DF93DC
:100DE000EC018617970781F0FB0100811181011545
:100DF000110539F0E480F580B7010E942E068111BB
:100E00000BC0CE010E94D806CE01DF91CF911F9179
:100E10000F91FF90EF900895FD82EC82B8018881D8
:100E200099810E949511F0CFFC01118210821382EA
:100E30001282158214820C94EA06EF92FF920F93AD
:100E40001F93CF93DF93EC01198218821B821A82C1
:100E50001D821C826115710521F18B01FB0101903E
:100E60000020E9F731977F01E61AF70AB7010E94DF
:100E70002E06811109C0CE01DF91CF911F910F91F4
:100E8000FF90EF900C94D806FD82EC82B801888127
:100E90009981DF91CF911F910F91FF90EF900C946A
:100EA0009511DF91CF911F910F91FF90EF900895D1
:100EB000FC0180819181009711F00C943D10089500
:100EC000EF92FF920F931F93CF93DF93CDB7DEB7CF
:100ED0002C970FB6F894DEBF0FBECDBF7C018B01FF
:100EE00081E00E94BA0581E991E00E947101809140
:100EF000F502882319F0C7010E949F05B801CE01B1
:100F000001960E941407CE0101960E949F01CE0116
:100F100001960E94580786E691E00E94CF0581E67F
:100F200091E00E94CF056EE671E0CE0107960E9427
:100F30001D0766E070E0CE0107960E947D06BE01A7
:100F4000695F7F4FCE0101960E941407CE01019682
:100F50000E949F01CE0101960E94580786E791E00A
:100F60000E94CF058DE791E00E94CF0589E891E0CE
:100F70000E94CF0583E991E00E94CF058DE991E0C1
:100F80000E94CF050E940305CE0107960E945807D4
:100F90002C960FB6F894DEBF0FBECDBFDF91CF9178
:100FA0001F910F91FF90EF900895CF92DF92EF92F3
:100FB000FF92CF93DF9300D000D000D0CDB7DEB743
:100FC0000E94DF046B017C010E94DF040E94DF04A9
:100FD0000E941901882309F43FC081E080933F05F6
:100FE000809340056091410570914205CE010196C4
:100FF0000E941D0781E0C816D104E104F10489F5BF
:101000008AE090E090933D0280933C0289E090E07A
:1010100090933B0280933A028CE090E090933902E7
:1010200080933802BE016F5F7F4F86E492E00E949A
:10103000EA060E944204CE0101960E9458072696B5
:101040000FB6F894DEBF0FBECDBFDF91CF91FF90FA
:10105000EF90DF90CF9008951092400570E060E02F
:10106000C5CF82E0C816D104E104F10421F787E07E
:1010700090E090933D0280933C0286E090E0909354
:101080003B0280933A0288E090E0C8CFCF92DF9293
:10109000EF92FF920F931F93CF93DF93CDB7DEB7FD
:1010A0006E970FB6F894DEBF0FBECDBF0E94190138
:1010B000882309F440C081E080933F058093400578
:1010C000009141051091420569EA71E0C8010E9452
:1010D0008C11892BA9F580E00E94BA058DE191E081
:1010E0000E94710188EF90E00E94710187ED90E00D
:1010F0000E9471018091F502882321F082E090E046
:101100000E949F0585ED90E00E94710180EC90E0C7
:101110000E9471010E9403056E960FB6F894DEBF1F
:101120000FBECDBFDF91CF911F910F91FF90EF9038
:10113000DF90CF9008951092400510E000E0C4CFFA
:101140006EEA71E0C8010E948C11892B01F580E0E4
:101150000E94BA0583EB91E00E94CF050E94DF0454
:101160006B017C018091F5028823A1F26091490511
:1011700080914605909147050E946A01B701A6013A
:1011800080914605909147050E946D05C3CF68EB9D
:1011900071E0C8010E948C11892B09F0BDCF81E05C
:1011A0000E94BA058FEB91E00E94CF0584EB90E09E
:1011B0000E94710186EA90E00E94710187E990E047
:1011C0000E94710187E890E00E94710184E790E03D
:1011D0000E9471010E94030501E010E066EC71E0DD
:1011E000CE0107960E941D07B801CE0107960E9406
:1011F0007D066EEC71E0CE0149960E941D0763EDFD
:1012000071E0CE0143960E941D07BE01695F7F4FCA
:10121000CE010D960E94140781E00E94BA0588E66F
:1012200090E00E9471018091F502882319F0C801B5
:101230000E949F05BE01635F7F4FCE0101960E9411
:101240001407CE0101960E949F01CE0101960E94D3
:101250005807BE016D5E7F4FCE0101960E941407B4
:10126000CE0101960E949F01CE0101960E9458076F
:10127000BE01675E7F4FCE0101960E941407CE012A
:1012800001960E949F01CE0101960E9458070E947C
:101290000305CE010D960E945807CE0143960E9489
:1012A0005807CE0149960E945807CE0107960E9422
:1012B00058070F5F1F4F0430110509F08FCF6EEDF7
:1012C00071E0CE0143960E941D076AEE71E0CE01E7
:1012D0000D960E941D0762EF71E0CE0107960E94F5
:1012E0001D0781E00E94BA058EE690E00E94710120
:1012F0008091F502882399F0609149058091460517
:10130000909147050E946A012AE045E650E060E0BE
:1013100070E080914605909147050E942105BE012D
:10132000695F7F4FCE0101960E941407CE0101969E
:101330000E949F01CE0101960E945807BE01635F83
:101340007F4FCE0101960E941407CE0101960E94A4
:101350009F01CE0101960E945807BE016D5E7F4F2E
:10136000CE0101960E941407CE0101960E949F01B2
:10137000CE0101960E9458070E940305CE010796F0
:101380000E945807CE010D960E945807CE01439641
:101390000E9458076CEF71E0CE0101960E941D0774
:1013A000BE016F5F7F4F81E090E00E946007CE0139
:1013B00001960E94580763E072E0CE0101960E94F8
:1013C0001D07BE016F5F7F4F82E090E00E946007C3
:1013D000CE0101960E94580768EB71E080E00E9400
:1013E000EA059ACE1F920F920FB60F9211242F93F7
:1013F0003F934F935F936F937F938F939F93AF939D
:10140000BF93EF93FF9388E592E00E944002FF9123
:10141000EF91BF91AF919F918F917F916F915F916C
:101420004F913F912F910F900FBE0F901F901895E5
:101430001F920F920FB60F9211242F938F939F93A9
:10144000EF93FF93E0916802F09169028081E0914F
:101450006E02F0916F0282FD1BC09081809171023B
:101460008F5F8F7320917202821741F0E0917102B9
:10147000F0E0E85AFD4F958F80937102FF91EF9154
:101480009F918F912F910F900FBE0F901F901895E5
:101490008081F4CF1F920F920FB60F9211242F93D9
:1014A0003F938F939F93AF93BF938091410290910D
:1014B0004202A0914302B09144023091310223E0F4
:1014C000230F2D3758F50196A11DB11D2093310230
:1014D0008093410290934202A0934302B09344024E
:1014E0008091320290913302A0913402B091350282
:1014F0000196A11DB11D8093320290933302A093F7
:101500003402B0933502BF91AF919F918F913F917B
:101510002F910F900FBE0F901F90189526E8230F64
:101520000296A11DB11DD2CF10925B0210925A02F9
:1015300088EE93E0A0E0B0E080935C0290935D02BF
:10154000A0935E02B0935F0286E391E0909359020C
:101550008093580285EC90E090936502809364023A
:1015600084EC90E0909367028093660280EC90E0B8
:10157000909369028093680281EC90E090936B02F3
:1015800080936A0282EC90E090936D0280936C02EB
:1015900086EC90E090936F0280936E02109271023D
:1015A00010927202109273021092740210924C0503
:1015B00010924B0588E592E090934705809346058D
:1015C0001092FD028CE2809349058BE380934805DD
:1015D0008FE280934A0580E48093F8028FE3809342
:1015E000F9021092F70210924205109241051092F2
:1015F00044051092430581E080933F05EDE4F5E05A
:101600001192119285E0E13BF807D1F71092FC02AC
:1016100066E471E082E592E00E941D0766E471E0F5
:101620008CE492E00E941D0766E471E086E492E09B
:101630000C941D07CF93DF93CDB7DEB762970FB63B
:10164000F894DEBF0FBECDBF789484B5826084BDB0
:1016500084B5816084BD85B5826085BD85B58160B6
:1016600085BD80916E00816080936E001092810034
:1016700080918100826080938100809181008160EF
:1016800080938100809180008160809380008091B0
:10169000B10084608093B1008091B000816080933C
:1016A000B00080917A00846080937A0080917A0003
:1016B000826080937A0080917A00816080937A00C2
:1016C00080917A00806880937A001092C100109215
:1016D000370210923602F7E04F2E512CA6E06A2E08
:1016E000712CB8E0EB2EF12C1AE0C12ED12C09E0C0
:1016F000A02EB12C8CE0882E912C009136021091F6
:101700003702033011050CF05CC00130110509F0FF
:1017100048C0D0923D02C0923C02B0923B02A092DF
:101720003A02909239028092380261E080913C0244
:101730000E944F0320903A0261E0822D0E944F03E5
:101740003090380261E0832D0E944F0361E0822DCA
:101750000E94210360E0832D0E94210360E08FE05E
:101760000E94E20361E08CE00E94E2036FEF89E0F7
:101770000E94E20361E08AE00E94E20367E08BE0FE
:101780000E94E2036FE081E00E94E2036FE082E0EA
:101790000E94E2030F5F1F4F10933702009336023F
:1017A000ACCF0230110509F650923D0240923C0246
:1017B00070923B0260923A02F0923902E092380253
:1017C000B4CF0091000160E0802F0E944F03109180
:1017D000010160E0812F0E944F0361E0802F0E9491
:1017E000210361E0812F0E9421030091070160E045
:1017F000802F0E944F031091080160E0812F0E940A
:101800004F0361E0802F0E94210361E0812F0E943D
:101810002103E0916802F091690282E08083E09107
:101820006402F09165021082E0916602F091670215
:101830008FEC808310927002E0916C02F0916D0247
:1018400086E08083E0916A02F0916B028081806182
:101850008083E0916A02F0916B02808188608083CE
:10186000E0916A02F0916B02808180688083E09150
:101870006A02F0916B0280818F7D80838091F502F6
:10188000811109C083E00E94BA058CE791E00E94B3
:1018900071010E9403058EEF95E090934C058093B3
:1018A0004B0526E438E030934E0520934D0523E0A8
:1018B00036E0309352052093510590935405809360
:1018C000530585ED97E090935C0580935B0561E09F
:1018D0008BE00E944F0361E08BE00E944F0361E0C8
:1018E0008BE00E94210362E081E10E944F0362E0ED
:1018F00082E10E944F0362E083E10E944F038AE08D
:1019000090E090933D0280933C0289E090E09093B8
:101910003B0280933A028CE090E0909339028093EE
:10192000380261E00E94E20387E090E090933D027C
:1019300080933C0286E090E090933B0280933A02D1
:1019400088E090E0909339028093380261E08CE067
:101950000E94E20361E08BE00E944F0361E08BE0B4
:101960000E94210366246394772473948091450236
:10197000882309F4B7C070E0C72E71E0D72EF12C90
:10198000E12CE7E0BE2ED60111968C910E94F80260
:101990008C01F60180810E94F802BE9CD001BF9CA0
:1019A000B00D1124A050BF4F1696EC911697EF7012
:1019B000000F111F082B24E0E29FF0011124EC5EC0
:1019C000FE4FE00FF11D808116968C9316971696A8
:1019D0008C918073803109F02AC16BE072E0E114D0
:1019E000F10411F063E172E088E00E94EA0565E02D
:1019F00070E080E090E00E94B0036AE070E080E078
:101A000090E00E94B00387E0C80ED11CEA94EF2852
:101A100009F009C10CE211E03EE3E32E32E0F32EBF
:101A200042E3A42E41E0B42EF80181810E94F80225
:101A3000D7012C912817190609F44BC0F801D08062
:101A4000211101C16C9266E471E0CE010D960E94F5
:101A50001D076D2DCE010D960E94AD0641E050E0B0
:101A600069E272E0CE010D960E94560661E070E0D8
:101A7000CE010D960E947D06BE01635F7F4FCE01B1
:101A800007960E9414078091F502811114C088E026
:101A90000E94BA05BE01695F7F4FCE0101960E9488
:101AA0001407CE0101960E949F01CE0101960E946B
:101AB00058070E940305CE0107960E945807CE01E1
:101AC0000D960E94580769E170E080E090E00E9466
:101AD000B0030E5F1F4FBFEFEB1AFB0AA016B10653
:101AE00009F0A2CF8091FC02811115C180914605B9
:101AF00090914705DC01ED91FC910084F185E02D8A
:101B00000995892B09F407C18091460590914705F5
:101B1000DC01ED91FC910084F185E02D0995C12C4B
:101B200022E0D22E8115924064F480914605909176
:101B30004705DC01ED91FC910084F185E02D0995CC
:101B40006C0100914605109147059EE3A92E93E094
:101B5000B92E4501F12CE12CCE14DF0409F08AC026
:101B600010E000E0C016D10609F4BCCFD5019D916C
:101B70005D0110923E0530914A052091FB02909341
:101B8000FB02931304C0921302C01092FB028091D7
:101B9000F702E82FF0E040914805EB50FD4F941319
:101BA000A1C0321709F49EC01186882321F07092DB
:101BB0003E051092FB021092F7021092420510921D
:101BC0004105109244051092430570923F05F09034
:101BD0003E05B1E0FB129CC00E941901882309F464
:101BE0008BC0F0923F05F0924005809141059091A5
:101BF00042050E94AB0E8093F602823308F081C04A
:101C000020914005222309F47CC0FC01FF27EE0F40
:101C1000FF1FE35BFA4F0190F081E02D309709F44C
:101C200070C0099575C0EE24E394F12CACCE8032DF
:101C300009F0E9CE69E172E0E114F10409F4D4CECF
:101C400062E272E0D1CE1C9266E471E0CE010D96A4
:101C50000E941D076D2DCE010D960E94AD0641E03C
:101C600050E069E272E0CE010D960E94560670E0E7
:101C700060E0FECE2FB7F89480914102909142022D
:101C8000A0914302B09144022FBFF8018087918751
:101C9000A287B387D801ED91FC910284F385E02DF2
:101CA000C801099597FF44C02FB7F894809141026D
:101CB00090914202A0914302B09144022FBFF801DB
:101CC0004085518562857385841B950BA60BB70BE8
:101CD000448155816681778184179507A607B707E8
:101CE000C8F23ECF91878F5F8093F7029091F902FF
:101CF000891708F060CF6BCF1092400590E080E02C
:101D00007ACFE0914B05F0914C05309709F089CFDF
:101D10000F5F1F4F27CF80E090E0892B09F426CE7C
:101D20000E942C02882309F41DCE0E9400001ACEC6
:101D3000F40181934F01FFEFEF1AFF0A0DCF86E404
:101D400092E00E9458078CE492E00E94580782E5D6
:101D500092E00C945807FC0188279927E894219178
:101D60002032E9F3293010F02E30C8F32B3241F045
:101D70002D3239F4689404C00E94100F820F911D17
:101D8000219120532A30C0F31EF4909581959F4FE6
:101D900008951F93FC0199278827BC01E8941191AD
:101DA0001032E9F3193010F01E30C8F31B3251F035
:101DB0001D3249F4689406C00E94FB0E610F711D2C
:101DC000811D911D119110531A30B0F33EF490957E
:101DD0008095709561957F4F8F4F9F4F1F9108950C
:101DE000BB274A3031F4992322F4BDE290958195C6
:101DF0009F4F0C94190F592F482F372F262F660FFE
:101E0000771F881F991F660F771F881F991F620F02
:101E1000731F841F951F660F771F881F991F0895D2
:101E20007AE0979F902D879F802D910D1124089522
:101E3000BB27FB015527AA27880F991FAA1FA417A4
:101E400010F0A41B83955051B9F7A05DAA3308F098
:101E5000A95DA193009779F7B111B1931192CB01CC
:101E60000C94320FDC01FC01672F71917723E1F7AD
:101E7000329704C07C916D9370836291AE17BF0757
:101E8000C8F308952F923F924F925F926F927F9284
:101E90008F929F92AF92BF92CF92DF92EF92FF927A
:101EA0000F931F93CF93DF93CDB7DEB7CA1BDB0B26
:101EB0000FB6F894DEBF0FBECDBF09942A883988CB
:101EC00048885F846E847D848C849B84AA84B984D2
:101ED000C884DF80EE80FD800C811B81AA81B981DE
:101EE000CE0FD11D0FB6F894DEBF0FBECDBFED01F2
:101EF0000895A1E21A2EAA1BBB1BFD010DC0AA1F4B
:101F0000BB1FEE1FFF1FA217B307E407F50720F062
:101F1000A21BB30BE40BF50B661F771F881F991FDD
:101F20001A9469F760957095809590959B01AC0126
:101F3000BD01CF010895EE0FFF1F0590F491E02D34
:101F400009940F931F93CF93DF938230910510F480
:101F500082E090E0E091B305F091B40530E020E03C
:101F6000B0E0A0E0309799F42115310509F44AC09A
:101F7000281B390B24303105D8F58A819B816115E6
:101F8000710589F1FB0193838283FE0111C04081B9
:101F900051810281138148175907E0F0481759070A
:101FA00099F4109761F012960C93129713961C9364
:101FB0003296CF01DF91CF911F910F910895009339
:101FC000B3051093B405F4CF2115310551F0421734
:101FD000530738F0A901DB019A01BD01DF01F801C7
:101FE000C1CFEF01F9CF9093B4058093B305CDCF66
:101FF000FE01E20FF31F819391932250310939833F
:102000002883D7CF2091B1053091B205232B41F41D
:1020100020911001309111013093B2052093B10548
:1020200020910E0130910F012115310541F42DB79A
:102030003EB74091120150911301241B350BE091E2
:10204000B105F091B205E217F307A0F42E1B3F0B88
:102050002817390778F0AC014E5F5F4F241735071A
:1020600048F04E0F5F1F5093B2054093B105819326
:1020700091939FCFF0E0E0E09CCFCF93DF93009768
:10208000E9F0FC01329713821282A091B305B0915E
:10209000B405ED0130E020E01097A1F420813181FA
:1020A000820F931F2091B1053091B205281739078F
:1020B00009F061C0F093B205E093B105DF91CF91D3
:1020C0000895EA01CE17DF07E8F54A815B819E019A
:1020D00041155105B1F7E901FB83EA834991599113
:1020E000C40FD51FEC17FD0761F480819181029622
:1020F000840F951FE90199838883828193819B8353
:102100008A83F0E0E0E012968D919C9113970097FE
:10211000B9F52D913C911197CD010296820F931F35
:102120002091B1053091B2052817390739F630975B
:1021300051F51092B4051092B305B093B205A09377
:10214000B105BCCFD383C28340815181840F951FD9
:10215000C817D90761F44E5F5F4F88819981480F96
:10216000591F518340838A819B81938382832115E8
:10217000310509F0B0CFF093B405E093B3059ECFDD
:10218000FD01DC01C0CF13821282D7CFB0E0A0E006
:10219000ECECF0E10C94440F8C01009751F4CB016E
:1021A0000E94A10F8C01C801CDB7DEB7E0E10C940D
:1021B000600FFC01E60FF71F9C0122503109E21766
:1021C000F30708F49DC0D901CD91DC911197C61792
:1021D000D70798F0C530D10530F3CE0104978617A4
:1021E000970708F3C61BD70B2297C193D1936D9322
:1021F0007C93CF010E943D10D6CF5B01AC1ABD0A83
:102200004C018C0E9D1EA091B305B091B405512CCC
:10221000412CF12CE12C109731F58091B105909172
:10222000B2058815990509F05CC04616570608F0F6
:1022300058C080910E0190910F01009741F48DB725
:102240009EB74091120150911301841B950BE81722
:10225000F90708F055C0F093B205E093B105F90114
:1022600071836083A0CF8D919C91119712966C9091
:10227000129713967C901397A815B90559F56C0120
:1022800042E0C40ED11CCA14DB0420F1AC014A198F
:102290005B09DA011296159780F06282738251838E
:1022A0004083D9016D937C93E114F10471F0D7015F
:1022B0001396FC93EE93129776CF22968C0F9D1F68
:1022C000F90191838083F301EFCFF093B405E0939C
:1022D000B30569CF4816590608F42C017D01D301D6
:1022E0009ACFCB010E94A10F7C01009749F0AE016B
:1022F000B8010E948311C8010E943D10870153CF8D
:1023000010E000E050CFFB01DC0102C001900D9213
:1023100041505040D8F70895FB01DC018D910190A8
:1023200080190110D9F3990B0895FB01DC0101908C
:102330000D920020E1F7089510E0CDECD0E004C04C
:10234000FE010E949B0F2196CE3CD107C9F7F8945D
:02235000FFCFBD
:102352000203100011000004051200130000000027
:10236200B5058000030201001300010023020000F2
:1023720003050400030304200305031001110212E4
:102382000313000000006202C201EF01AF0220024B
:10239200FE0112020D0A00554E4B4E4F574E20437E
:1023A2004F4D4D414E4400535441525400454E440A
:1023B20000535041445F444953504C4159004C45ED
:1023C2004E4754483D00524F57533D31004E4F50F7
:1023D200414444494E473D310057494454483D31F8
:1023E2003333004845494748543D343000464F4E48
:1023F2005453495A453D343000494E4954005049DE
:102402004E4700504F4E4700434F4E464947004FFC
:102412005054494F4E00425554544F4E5F00535052
:1024220041445F50555348425554544F4E00535007
:1024320041445F444F55424C455F454E434F4445EE
:102442005200454E434F4445525F31004143544987
:102452005645005354414E444259003130312C31DB
:102462003030003130312C31003130312C2D3130CF
:0C24720030003130312C2D31002C0000E6
:00000001FF
